{
  "contractName": "FLibra",
  "abi": [
    {
      "constant": true,
      "inputs": [
        {
          "name": "",
          "type": "address"
        },
        {
          "name": "",
          "type": "uint256"
        }
      ],
      "name": "myPurchasedItemId",
      "outputs": [
        {
          "name": "",
          "type": "uint256"
        }
      ],
      "payable": false,
      "stateMutability": "view",
      "type": "function",
      "signature": "0x053872dd"
    },
    {
      "constant": true,
      "inputs": [
        {
          "name": "",
          "type": "uint256"
        }
      ],
      "name": "reviewToPurchaser",
      "outputs": [
        {
          "name": "itemId",
          "type": "uint256"
        },
        {
          "name": "star",
          "type": "uint256"
        },
        {
          "name": "text",
          "type": "string"
        }
      ],
      "payable": false,
      "stateMutability": "view",
      "type": "function",
      "signature": "0x342803a6"
    },
    {
      "constant": true,
      "inputs": [
        {
          "name": "",
          "type": "uint256"
        }
      ],
      "name": "onSaleItems",
      "outputs": [
        {
          "name": "",
          "type": "uint256"
        }
      ],
      "payable": false,
      "stateMutability": "view",
      "type": "function",
      "signature": "0x4495f9aa"
    },
    {
      "constant": true,
      "inputs": [
        {
          "name": "",
          "type": "address"
        },
        {
          "name": "",
          "type": "uint256"
        }
      ],
      "name": "myItemId",
      "outputs": [
        {
          "name": "",
          "type": "uint256"
        }
      ],
      "payable": false,
      "stateMutability": "view",
      "type": "function",
      "signature": "0x7d007351"
    },
    {
      "constant": true,
      "inputs": [
        {
          "name": "",
          "type": "address"
        }
      ],
      "name": "UserInfo",
      "outputs": [
        {
          "name": "userAddress",
          "type": "address"
        },
        {
          "name": "userName",
          "type": "string"
        },
        {
          "name": "userIcon",
          "type": "string"
        }
      ],
      "payable": false,
      "stateMutability": "view",
      "type": "function",
      "signature": "0xe377ee1b"
    },
    {
      "constant": true,
      "inputs": [
        {
          "name": "",
          "type": "uint256"
        }
      ],
      "name": "reviewToSeller",
      "outputs": [
        {
          "name": "itemId",
          "type": "uint256"
        },
        {
          "name": "star",
          "type": "uint256"
        },
        {
          "name": "text",
          "type": "string"
        }
      ],
      "payable": false,
      "stateMutability": "view",
      "type": "function",
      "signature": "0xfa0626a3"
    },
    {
      "constant": true,
      "inputs": [
        {
          "name": "",
          "type": "uint256"
        }
      ],
      "name": "allItems",
      "outputs": [
        {
          "name": "id",
          "type": "uint256"
        },
        {
          "name": "itemDetailContract",
          "type": "address"
        },
        {
          "name": "seller",
          "type": "address"
        },
        {
          "name": "selling",
          "type": "bool"
        },
        {
          "name": "purchaser",
          "type": "address"
        }
      ],
      "payable": false,
      "stateMutability": "view",
      "type": "function",
      "signature": "0xff68fa6e"
    },
    {
      "inputs": [],
      "payable": false,
      "stateMutability": "nonpayable",
      "type": "constructor",
      "signature": "constructor"
    },
    {
      "anonymous": false,
      "inputs": [
        {
          "indexed": false,
          "name": "id",
          "type": "uint256"
        },
        {
          "indexed": false,
          "name": "itemDetailContract",
          "type": "address"
        },
        {
          "indexed": false,
          "name": "seller",
          "type": "address"
        },
        {
          "indexed": false,
          "name": "selling",
          "type": "bool"
        },
        {
          "indexed": false,
          "name": "purchaser",
          "type": "address"
        }
      ],
      "name": "PostItem",
      "type": "event",
      "signature": "0x7508143378688c24a90e10589026b9caee42ff9ab9aef81f81001478653b5613"
    },
    {
      "anonymous": false,
      "inputs": [
        {
          "indexed": false,
          "name": "id",
          "type": "uint256"
        },
        {
          "indexed": false,
          "name": "purchaser",
          "type": "address"
        }
      ],
      "name": "ItemPurchased",
      "type": "event",
      "signature": "0x7ce670ea54227685ed72f8669179c51b47ba2251ce7cfac367725a7b8f9b743d"
    },
    {
      "anonymous": false,
      "inputs": [
        {
          "indexed": false,
          "name": "userAddress",
          "type": "address"
        },
        {
          "indexed": false,
          "name": "userName",
          "type": "string"
        },
        {
          "indexed": false,
          "name": "userIcon",
          "type": "string"
        }
      ],
      "name": "UserInfoCreated",
      "type": "event",
      "signature": "0x71abc9615cdbbfda862d7e14f436c9d348b613195888917cce5042f33b40958b"
    },
    {
      "anonymous": false,
      "inputs": [
        {
          "indexed": false,
          "name": "itemId",
          "type": "uint256"
        },
        {
          "indexed": false,
          "name": "star",
          "type": "uint256"
        },
        {
          "indexed": false,
          "name": "text",
          "type": "string"
        }
      ],
      "name": "WriteReviewToSeller",
      "type": "event",
      "signature": "0x2da3ea64410ead21f3ff98fbcddd5a3c9e297be46413dfbda5f69ca8c4afa64e"
    },
    {
      "anonymous": false,
      "inputs": [
        {
          "indexed": false,
          "name": "itemId",
          "type": "uint256"
        },
        {
          "indexed": false,
          "name": "star",
          "type": "uint256"
        },
        {
          "indexed": false,
          "name": "text",
          "type": "string"
        }
      ],
      "name": "WriteReviewToPurchaser",
      "type": "event",
      "signature": "0xc0c0cf8f27a90e3b9862a6149eb84b21e1bbf195b7087b14e20dd272e7463d6f"
    },
    {
      "constant": false,
      "inputs": [
        {
          "name": "_userName",
          "type": "string"
        },
        {
          "name": "_userIcon",
          "type": "string"
        }
      ],
      "name": "setUserInfo",
      "outputs": [],
      "payable": false,
      "stateMutability": "nonpayable",
      "type": "function",
      "signature": "0xe21eabed"
    },
    {
      "constant": false,
      "inputs": [
        {
          "name": "_itemDetailContract",
          "type": "address"
        }
      ],
      "name": "postItem",
      "outputs": [],
      "payable": false,
      "stateMutability": "nonpayable",
      "type": "function",
      "signature": "0xad111bc6"
    },
    {
      "constant": false,
      "inputs": [
        {
          "name": "_id",
          "type": "uint256"
        }
      ],
      "name": "purchaseItem",
      "outputs": [],
      "payable": false,
      "stateMutability": "nonpayable",
      "type": "function",
      "signature": "0xd38ea5bf"
    },
    {
      "constant": false,
      "inputs": [
        {
          "name": "_id",
          "type": "uint256"
        },
        {
          "name": "_star",
          "type": "uint256"
        },
        {
          "name": "_text",
          "type": "string"
        }
      ],
      "name": "writeReviewToSeller",
      "outputs": [],
      "payable": false,
      "stateMutability": "nonpayable",
      "type": "function",
      "signature": "0xa77d898f"
    },
    {
      "constant": false,
      "inputs": [
        {
          "name": "_id",
          "type": "uint256"
        },
        {
          "name": "_star",
          "type": "uint256"
        },
        {
          "name": "_text",
          "type": "string"
        }
      ],
      "name": "writeReviewToPurchaser",
      "outputs": [],
      "payable": false,
      "stateMutability": "nonpayable",
      "type": "function",
      "signature": "0x60e0c149"
    },
    {
      "constant": true,
      "inputs": [
        {
          "name": "_address",
          "type": "address"
        }
      ],
      "name": "getMyItemId",
      "outputs": [
        {
          "name": "",
          "type": "uint256[]"
        }
      ],
      "payable": false,
      "stateMutability": "view",
      "type": "function",
      "signature": "0x1fda9105"
    },
    {
      "constant": true,
      "inputs": [
        {
          "name": "_id",
          "type": "uint256"
        }
      ],
      "name": "getMyItem",
      "outputs": [
        {
          "components": [
            {
              "name": "id",
              "type": "uint256"
            },
            {
              "name": "itemDetailContract",
              "type": "address"
            },
            {
              "name": "seller",
              "type": "address"
            },
            {
              "name": "selling",
              "type": "bool"
            },
            {
              "name": "purchaser",
              "type": "address"
            }
          ],
          "name": "",
          "type": "tuple"
        }
      ],
      "payable": false,
      "stateMutability": "view",
      "type": "function",
      "signature": "0x2877d196"
    },
    {
      "constant": true,
      "inputs": [],
      "name": "getNumberOfItem",
      "outputs": [
        {
          "name": "",
          "type": "uint256"
        }
      ],
      "payable": false,
      "stateMutability": "view",
      "type": "function",
      "signature": "0x61978244"
    },
    {
      "constant": true,
      "inputs": [
        {
          "name": "_id",
          "type": "uint256"
        }
      ],
      "name": "getAllItem",
      "outputs": [
        {
          "components": [
            {
              "name": "id",
              "type": "uint256"
            },
            {
              "name": "itemDetailContract",
              "type": "address"
            },
            {
              "name": "seller",
              "type": "address"
            },
            {
              "name": "selling",
              "type": "bool"
            },
            {
              "name": "purchaser",
              "type": "address"
            }
          ],
          "name": "",
          "type": "tuple"
        }
      ],
      "payable": false,
      "stateMutability": "view",
      "type": "function",
      "signature": "0x36fcee3b"
    },
    {
      "constant": true,
      "inputs": [
        {
          "name": "_selling",
          "type": "bool"
        }
      ],
      "name": "getOnSaleItemsId",
      "outputs": [
        {
          "name": "",
          "type": "uint256[]"
        }
      ],
      "payable": false,
      "stateMutability": "view",
      "type": "function",
      "signature": "0xf91aa97f"
    },
    {
      "constant": true,
      "inputs": [
        {
          "name": "_id",
          "type": "uint256"
        }
      ],
      "name": "getItemOnSale",
      "outputs": [
        {
          "components": [
            {
              "name": "id",
              "type": "uint256"
            },
            {
              "name": "itemDetailContract",
              "type": "address"
            },
            {
              "name": "seller",
              "type": "address"
            },
            {
              "name": "selling",
              "type": "bool"
            },
            {
              "name": "purchaser",
              "type": "address"
            }
          ],
          "name": "",
          "type": "tuple"
        }
      ],
      "payable": false,
      "stateMutability": "view",
      "type": "function",
      "signature": "0xd399e230"
    },
    {
      "constant": true,
      "inputs": [
        {
          "name": "_address",
          "type": "address"
        }
      ],
      "name": "getMyPurchasedItemId",
      "outputs": [
        {
          "name": "",
          "type": "uint256[]"
        }
      ],
      "payable": false,
      "stateMutability": "view",
      "type": "function",
      "signature": "0x81e84ee8"
    },
    {
      "constant": true,
      "inputs": [
        {
          "name": "_id",
          "type": "uint256"
        }
      ],
      "name": "getMyPurchasedItem",
      "outputs": [
        {
          "components": [
            {
              "name": "id",
              "type": "uint256"
            },
            {
              "name": "itemDetailContract",
              "type": "address"
            },
            {
              "name": "seller",
              "type": "address"
            },
            {
              "name": "selling",
              "type": "bool"
            },
            {
              "name": "purchaser",
              "type": "address"
            }
          ],
          "name": "",
          "type": "tuple"
        }
      ],
      "payable": false,
      "stateMutability": "view",
      "type": "function",
      "signature": "0xc7bff60e"
    },
    {
      "constant": true,
      "inputs": [
        {
          "name": "_userAddress",
          "type": "address"
        }
      ],
      "name": "getUserInfo",
      "outputs": [
        {
          "components": [
            {
              "name": "userAddress",
              "type": "address"
            },
            {
              "name": "userName",
              "type": "string"
            },
            {
              "name": "userIcon",
              "type": "string"
            }
          ],
          "name": "",
          "type": "tuple"
        }
      ],
      "payable": false,
      "stateMutability": "view",
      "type": "function",
      "signature": "0x6386c1c7"
    },
    {
      "constant": true,
      "inputs": [
        {
          "name": "_id",
          "type": "uint256"
        }
      ],
      "name": "getSellerReview",
      "outputs": [
        {
          "components": [
            {
              "name": "itemId",
              "type": "uint256"
            },
            {
              "name": "star",
              "type": "uint256"
            },
            {
              "name": "text",
              "type": "string"
            }
          ],
          "name": "",
          "type": "tuple"
        }
      ],
      "payable": false,
      "stateMutability": "view",
      "type": "function",
      "signature": "0x4a05f128"
    },
    {
      "constant": true,
      "inputs": [
        {
          "name": "_id",
          "type": "uint256"
        }
      ],
      "name": "getPurchaserReview",
      "outputs": [
        {
          "components": [
            {
              "name": "itemId",
              "type": "uint256"
            },
            {
              "name": "star",
              "type": "uint256"
            },
            {
              "name": "text",
              "type": "string"
            }
          ],
          "name": "",
          "type": "tuple"
        }
      ],
      "payable": false,
      "stateMutability": "view",
      "type": "function",
      "signature": "0xbbb3da62"
    }
  ],
  "bytecode": "0x60806040526000805534801561001457600080fd5b5061293a806100246000396000f3fe608060405234801561001057600080fd5b506004361061016a576000357c01000000000000000000000000000000000000000000000000000000009004806381e84ee8116100e0578063d399e23011610099578063d399e2301461043f578063e21eabed1461046f578063e377ee1b1461048b578063f91aa97f146104bd578063fa0626a3146104ed578063ff68fa6e1461051f5761016a565b806381e84ee81461035b578063a77d898f1461038b578063ad111bc6146103a7578063bbb3da62146103c3578063c7bff60e146103f3578063d38ea5bf146104235761016a565b80634495f9aa116101325780634495f9aa146102615780634a05f1281461029157806360e0c149146102c157806361978244146102dd5780636386c1c7146102fb5780637d0073511461032b5761016a565b8063053872dd1461016f5780631fda91051461019f5780632877d196146101cf578063342803a6146101ff57806336fcee3b14610231575b600080fd5b61018960048036036101849190810190612047565b610553565b60405161019691906125ba565b60405180910390f35b6101b960048036036101b4919081019061201e565b610581565b6040516101c69190612517565b60405180910390f35b6101e960048036036101e49190810190612118565b610618565b6040516101f69190612539565b60405180910390f35b61021960048036036102149190810190612118565b610774565b604051610228939291906126a4565b60405180910390f35b61024b60048036036102469190810190612118565b610836565b6040516102589190612539565b60405180910390f35b61027b60048036036102769190810190612118565b610992565b60405161028891906125ba565b60405180910390f35b6102ab60048036036102a69190810190612118565b6109b3565b6040516102b89190612576565b60405180910390f35b6102db60048036036102d69190810190612141565b610a96565b005b6102e5610bea565b6040516102f291906125ba565b60405180910390f35b6103156004803603610310919081019061201e565b610bf7565b6040516103229190612598565b60405180910390f35b61034560048036036103409190810190612047565b610dea565b60405161035291906125ba565b60405180910390f35b6103756004803603610370919081019061201e565b610e18565b6040516103829190612517565b60405180910390f35b6103a560048036036103a09190810190612141565b610eaf565b005b6103c160048036036103bc919081019061201e565b611003565b005b6103dd60048036036103d89190810190612118565b61125e565b6040516103ea9190612554565b60405180910390f35b61040d60048036036104089190810190612118565b611341565b60405161041a9190612539565b60405180910390f35b61043d60048036036104389190810190612118565b6114d9565b005b61045960048036036104549190810190612118565b61183d565b6040516104669190612539565b60405180910390f35b610489600480360361048491908101906120ac565b6119d7565b005b6104a560048036036104a0919081019061201e565b611b0a565b6040516104b4939291906124d2565b60405180910390f35b6104d760048036036104d29190810190612083565b611c84565b6040516104e49190612517565b60405180910390f35b61050760048036036105029190810190612118565b611c8b565b604051610516939291906126a4565b60405180910390f35b61053960048036036105349190810190612118565b611d4d565b60405161054a959493929190612651565b60405180910390f35b6004602052816000526040600020818154811061056c57fe5b90600052602060002001600091509150505481565b6060600360008373ffffffffffffffffffffffffffffffffffffffff1673ffffffffffffffffffffffffffffffffffffffff16815260200190815260200160002080548060200260200160405190810160405280929190818152602001828054801561060c57602002820191906000526020600020905b8154815260200190600101908083116105f8575b50505050509050919050565b610620611dfd565b6002828154811061062d57fe5b90600052602060002090600402016040518060a0016040529081600082015481526020016001820160009054906101000a900473ffffffffffffffffffffffffffffffffffffffff1673ffffffffffffffffffffffffffffffffffffffff1673ffffffffffffffffffffffffffffffffffffffff1681526020016002820160009054906101000a900473ffffffffffffffffffffffffffffffffffffffff1673ffffffffffffffffffffffffffffffffffffffff1673ffffffffffffffffffffffffffffffffffffffff1681526020016002820160149054906101000a900460ff161515151581526020016003820160009054906101000a900473ffffffffffffffffffffffffffffffffffffffff1673ffffffffffffffffffffffffffffffffffffffff1673ffffffffffffffffffffffffffffffffffffffff16815250509050919050565b6007602052806000526040600020600091509050806000015490806001015490806002018054600181600116156101000203166002900480601f01602080910402602001604051908101604052809291908181526020018280546001816001161561010002031660029004801561082c5780601f106108015761010080835404028352916020019161082c565b820191906000526020600020905b81548152906001019060200180831161080f57829003601f168201915b5050505050905083565b61083e611dfd565b6002828154811061084b57fe5b90600052602060002090600402016040518060a0016040529081600082015481526020016001820160009054906101000a900473ffffffffffffffffffffffffffffffffffffffff1673ffffffffffffffffffffffffffffffffffffffff1673ffffffffffffffffffffffffffffffffffffffff1681526020016002820160009054906101000a900473ffffffffffffffffffffffffffffffffffffffff1673ffffffffffffffffffffffffffffffffffffffff1673ffffffffffffffffffffffffffffffffffffffff1681526020016002820160149054906101000a900460ff161515151581526020016003820160009054906101000a900473ffffffffffffffffffffffffffffffffffffffff1673ffffffffffffffffffffffffffffffffffffffff1673ffffffffffffffffffffffffffffffffffffffff16815250509050919050565b6001818154811061099f57fe5b906000526020600020016000915090505481565b6109bb611e70565b600660008381526020019081526020016000206040518060600160405290816000820154815260200160018201548152602001600282018054600181600116156101000203166002900480601f016020809104026020016040519081016040528092919081815260200182805460018160011615610100020316600290048015610a865780601f10610a5b57610100808354040283529160200191610a86565b820191906000526020600020905b815481529060010190602001808311610a6957829003601f168201915b5050505050815250509050919050565b6000151560028481548110610aa757fe5b906000526020600020906004020160020160149054906101000a900460ff16151514610ad257600080fd5b3373ffffffffffffffffffffffffffffffffffffffff1660028481548110610af657fe5b906000526020600020906004020160020160009054906101000a900473ffffffffffffffffffffffffffffffffffffffff1673ffffffffffffffffffffffffffffffffffffffff1614610b4857600080fd5b6040518060600160405280848152602001838152602001828152506007600085815260200190815260200160002060008201518160000155602082015181600101556040820151816002019080519060200190610ba6929190611e91565b509050507fc0c0cf8f27a90e3b9862a6149eb84b21e1bbf195b7087b14e20dd272e7463d6f838383604051610bdd939291906126e2565b60405180910390a1505050565b6000600280549050905090565b610bff611f11565b600560008373ffffffffffffffffffffffffffffffffffffffff1673ffffffffffffffffffffffffffffffffffffffff1681526020019081526020016000206040518060600160405290816000820160009054906101000a900473ffffffffffffffffffffffffffffffffffffffff1673ffffffffffffffffffffffffffffffffffffffff1673ffffffffffffffffffffffffffffffffffffffff168152602001600182018054600181600116156101000203166002900480601f016020809104026020016040519081016040528092919081815260200182805460018160011615610100020316600290048015610d385780601f10610d0d57610100808354040283529160200191610d38565b820191906000526020600020905b815481529060010190602001808311610d1b57829003601f168201915b50505050508152602001600282018054600181600116156101000203166002900480601f016020809104026020016040519081016040528092919081815260200182805460018160011615610100020316600290048015610dda5780601f10610daf57610100808354040283529160200191610dda565b820191906000526020600020905b815481529060010190602001808311610dbd57829003601f168201915b5050505050815250509050919050565b60036020528160005260406000208181548110610e0357fe5b90600052602060002001600091509150505481565b6060600460008373ffffffffffffffffffffffffffffffffffffffff1673ffffffffffffffffffffffffffffffffffffffff168152602001908152602001600020805480602002602001604051908101604052809291908181526020018280548015610ea357602002820191906000526020600020905b815481526020019060010190808311610e8f575b50505050509050919050565b6000151560028481548110610ec057fe5b906000526020600020906004020160020160149054906101000a900460ff16151514610eeb57600080fd5b3373ffffffffffffffffffffffffffffffffffffffff1660028481548110610f0f57fe5b906000526020600020906004020160030160009054906101000a900473ffffffffffffffffffffffffffffffffffffffff1673ffffffffffffffffffffffffffffffffffffffff1614610f6157600080fd5b6040518060600160405280848152602001838152602001828152506006600085815260200190815260200160002060008201518160000155602082015181600101556040820151816002019080519060200190610fbf929190611e91565b509050507f2da3ea64410ead21f3ff98fbcddd5a3c9e297be46413dfbda5f69ca8c4afa64e838383604051610ff6939291906126e2565b60405180910390a1505050565b60016000540160008190555060026040518060a0016040528060005481526020018373ffffffffffffffffffffffffffffffffffffffff1681526020013373ffffffffffffffffffffffffffffffffffffffff168152602001600115158152602001600073ffffffffffffffffffffffffffffffffffffffff16815250908060018154018082558091505090600182039060005260206000209060040201600090919290919091506000820151816000015560208201518160010160006101000a81548173ffffffffffffffffffffffffffffffffffffffff021916908373ffffffffffffffffffffffffffffffffffffffff16021790555060408201518160020160006101000a81548173ffffffffffffffffffffffffffffffffffffffff021916908373ffffffffffffffffffffffffffffffffffffffff16021790555060608201518160020160146101000a81548160ff02191690831515021790555060808201518160030160006101000a81548173ffffffffffffffffffffffffffffffffffffffff021916908373ffffffffffffffffffffffffffffffffffffffff160217905550505050600360003373ffffffffffffffffffffffffffffffffffffffff1673ffffffffffffffffffffffffffffffffffffffff16815260200190815260200160002060005490806001815401808255809150509060018203906000526020600020016000909192909190915055507f7508143378688c24a90e10589026b9caee42ff9ab9aef81f81001478653b56136000548233600160006040516112539594939291906125fe565b60405180910390a150565b611266611f48565b600760008381526020019081526020016000206040518060600160405290816000820154815260200160018201548152602001600282018054600181600116156101000203166002900480601f0160208091040260200160405190810160405280929190818152602001828054600181600116156101000203166002900480156113315780601f1061130657610100808354040283529160200191611331565b820191906000526020600020905b81548152906001019060200180831161131457829003601f168201915b5050505050815250509050919050565b611349611dfd565b600015156002838154811061135a57fe5b906000526020600020906004020160020160149054906101000a900460ff1615151461138557600080fd5b6002828154811061139257fe5b90600052602060002090600402016040518060a0016040529081600082015481526020016001820160009054906101000a900473ffffffffffffffffffffffffffffffffffffffff1673ffffffffffffffffffffffffffffffffffffffff1673ffffffffffffffffffffffffffffffffffffffff1681526020016002820160009054906101000a900473ffffffffffffffffffffffffffffffffffffffff1673ffffffffffffffffffffffffffffffffffffffff1673ffffffffffffffffffffffffffffffffffffffff1681526020016002820160149054906101000a900460ff161515151581526020016003820160009054906101000a900473ffffffffffffffffffffffffffffffffffffffff1673ffffffffffffffffffffffffffffffffffffffff1673ffffffffffffffffffffffffffffffffffffffff16815250509050919050565b6114e1611dfd565b600282815481106114ee57fe5b90600052602060002090600402016040518060a0016040529081600082015481526020016001820160009054906101000a900473ffffffffffffffffffffffffffffffffffffffff1673ffffffffffffffffffffffffffffffffffffffff1673ffffffffffffffffffffffffffffffffffffffff1681526020016002820160009054906101000a900473ffffffffffffffffffffffffffffffffffffffff1673ffffffffffffffffffffffffffffffffffffffff1673ffffffffffffffffffffffffffffffffffffffff1681526020016002820160149054906101000a900460ff161515151581526020016003820160009054906101000a900473ffffffffffffffffffffffffffffffffffffffff1673ffffffffffffffffffffffffffffffffffffffff1673ffffffffffffffffffffffffffffffffffffffff16815250509050600081606001901515908115158152505033816080019073ffffffffffffffffffffffffffffffffffffffff16908173ffffffffffffffffffffffffffffffffffffffff1681525050806002838154811061168757fe5b90600052602060002090600402016000820151816000015560208201518160010160006101000a81548173ffffffffffffffffffffffffffffffffffffffff021916908373ffffffffffffffffffffffffffffffffffffffff16021790555060408201518160020160006101000a81548173ffffffffffffffffffffffffffffffffffffffff021916908373ffffffffffffffffffffffffffffffffffffffff16021790555060608201518160020160146101000a81548160ff02191690831515021790555060808201518160030160006101000a81548173ffffffffffffffffffffffffffffffffffffffff021916908373ffffffffffffffffffffffffffffffffffffffff160217905550905050600460003373ffffffffffffffffffffffffffffffffffffffff1673ffffffffffffffffffffffffffffffffffffffff1681526020019081526020016000208290806001815401808255809150509060018203906000526020600020016000909192909190915055507f7ce670ea54227685ed72f8669179c51b47ba2251ce7cfac367725a7b8f9b743d82336040516118319291906125d5565b60405180910390a15050565b611845611dfd565b600115156002838154811061185657fe5b906000526020600020906004020160020160149054906101000a900460ff16151514156119d1576002828154811061188a57fe5b90600052602060002090600402016040518060a0016040529081600082015481526020016001820160009054906101000a900473ffffffffffffffffffffffffffffffffffffffff1673ffffffffffffffffffffffffffffffffffffffff1673ffffffffffffffffffffffffffffffffffffffff1681526020016002820160009054906101000a900473ffffffffffffffffffffffffffffffffffffffff1673ffffffffffffffffffffffffffffffffffffffff1673ffffffffffffffffffffffffffffffffffffffff1681526020016002820160149054906101000a900460ff161515151581526020016003820160009054906101000a900473ffffffffffffffffffffffffffffffffffffffff1673ffffffffffffffffffffffffffffffffffffffff1673ffffffffffffffffffffffffffffffffffffffff168152505090506119d2565b5b919050565b60405180606001604052803373ffffffffffffffffffffffffffffffffffffffff16815260200183815260200182815250600560003373ffffffffffffffffffffffffffffffffffffffff1673ffffffffffffffffffffffffffffffffffffffff16815260200190815260200160002060008201518160000160006101000a81548173ffffffffffffffffffffffffffffffffffffffff021916908373ffffffffffffffffffffffffffffffffffffffff1602179055506020820151816001019080519060200190611aaa929190611e91565b506040820151816002019080519060200190611ac7929190611e91565b509050507f71abc9615cdbbfda862d7e14f436c9d348b613195888917cce5042f33b40958b338383604051611afe9392919061248d565b60405180910390a15050565b60056020528060005260406000206000915090508060000160009054906101000a900473ffffffffffffffffffffffffffffffffffffffff1690806001018054600181600116156101000203166002900480601f016020809104026020016040519081016040528092919081815260200182805460018160011615610100020316600290048015611bdc5780601f10611bb157610100808354040283529160200191611bdc565b820191906000526020600020905b815481529060010190602001808311611bbf57829003601f168201915b505050505090806002018054600181600116156101000203166002900480601f016020809104026020016040519081016040528092919081815260200182805460018160011615610100020316600290048015611c7a5780601f10611c4f57610100808354040283529160200191611c7a565b820191906000526020600020905b815481529060010190602001808311611c5d57829003601f168201915b5050505050905083565b6060919050565b6006602052806000526040600020600091509050806000015490806001015490806002018054600181600116156101000203166002900480601f016020809104026020016040519081016040528092919081815260200182805460018160011615610100020316600290048015611d435780601f10611d1857610100808354040283529160200191611d43565b820191906000526020600020905b815481529060010190602001808311611d2657829003601f168201915b5050505050905083565b60028181548110611d5a57fe5b90600052602060002090600402016000915090508060000154908060010160009054906101000a900473ffffffffffffffffffffffffffffffffffffffff16908060020160009054906101000a900473ffffffffffffffffffffffffffffffffffffffff16908060020160149054906101000a900460ff16908060030160009054906101000a900473ffffffffffffffffffffffffffffffffffffffff16905085565b6040518060a0016040528060008152602001600073ffffffffffffffffffffffffffffffffffffffff168152602001600073ffffffffffffffffffffffffffffffffffffffff168152602001600015158152602001600073ffffffffffffffffffffffffffffffffffffffff1681525090565b60405180606001604052806000815260200160008152602001606081525090565b828054600181600116156101000203166002900490600052602060002090601f016020900481019282601f10611ed257805160ff1916838001178555611f00565b82800160010185558215611f00579182015b82811115611eff578251825591602001919060010190611ee4565b5b509050611f0d9190611f69565b5090565b6040518060600160405280600073ffffffffffffffffffffffffffffffffffffffff16815260200160608152602001606081525090565b60405180606001604052806000815260200160008152602001606081525090565b611f8b91905b80821115611f87576000816000905550600101611f6f565b5090565b90565b6000611f9a823561282f565b905092915050565b6000611fae8235612841565b905092915050565b600082601f830112611fc757600080fd5b8135611fda611fd58261274d565b612720565b91508082526020830160208301858383011115611ff657600080fd5b6120018382846128ad565b50505092915050565b6000612016823561286d565b905092915050565b60006020828403121561203057600080fd5b600061203e84828501611f8e565b91505092915050565b6000806040838503121561205a57600080fd5b600061206885828601611f8e565b92505060206120798582860161200a565b9150509250929050565b60006020828403121561209557600080fd5b60006120a384828501611fa2565b91505092915050565b600080604083850312156120bf57600080fd5b600083013567ffffffffffffffff8111156120d957600080fd5b6120e585828601611fb6565b925050602083013567ffffffffffffffff81111561210257600080fd5b61210e85828601611fb6565b9150509250929050565b60006020828403121561212a57600080fd5b60006121388482850161200a565b91505092915050565b60008060006060848603121561215657600080fd5b60006121648682870161200a565b93505060206121758682870161200a565b925050604084013567ffffffffffffffff81111561219257600080fd5b61219e86828701611fb6565b9150509250925092565b60006121b4838361246f565b60208301905092915050565b6121c981612877565b82525050565b6121d8816127e7565b82525050565b6121e7816127e7565b82525050565b60006121f882612786565b61220281856127b4565b935061220d83612779565b60005b8281101561223b576122238683516121a8565b955061222e826127a7565b9150600181019050612210565b50849250505092915050565b612250816127f9565b82525050565b61225f816127f9565b82525050565b60006122708261279c565b61227a81856127d6565b935061228a8185602086016128bc565b612293816128ef565b840191505092915050565b60006122a982612791565b6122b381856127c5565b93506122c38185602086016128bc565b6122cc816128ef565b840191505092915050565b60006122e282612791565b6122ec81856127d6565b93506122fc8185602086016128bc565b612305816128ef565b840191505092915050565b60a082016000820151612326600085018261246f565b50602082015161233960208501826121cf565b50604082015161234c60408501826121cf565b50606082015161235f6060850182612247565b50608082015161237260808501826121cf565b50505050565b6000606083016000830151612390600086018261246f565b5060208301516123a3602086018261246f565b50604083015184820360408601526123bb828261229e565b9150508091505092915050565b60006060830160008301516123e0600086018261246f565b5060208301516123f3602086018261246f565b506040830151848203604086015261240b828261229e565b9150508091505092915050565b600060608301600083015161243060008601826121cf565b5060208301518482036020860152612448828261229e565b91505060408301518482036040860152612462828261229e565b9150508091505092915050565b61247881612825565b82525050565b61248781612825565b82525050565b60006060820190506124a260008301866121c0565b81810360208301526124b48185612265565b905081810360408301526124c88184612265565b9050949350505050565b60006060820190506124e760008301866121de565b81810360208301526124f981856122d7565b9050818103604083015261250d81846122d7565b9050949350505050565b6000602082019050818103600083015261253181846121ed565b905092915050565b600060a08201905061254e6000830184612310565b92915050565b6000602082019050818103600083015261256e8184612378565b905092915050565b6000602082019050818103600083015261259081846123c8565b905092915050565b600060208201905081810360008301526125b28184612418565b905092915050565b60006020820190506125cf600083018461247e565b92915050565b60006040820190506125ea600083018561247e565b6125f760208301846121c0565b9392505050565b600060a082019050612613600083018861247e565b61262060208301876121de565b61262d60408301866121c0565b61263a6060830185612256565b61264760808301846121de565b9695505050505050565b600060a082019050612666600083018861247e565b61267360208301876121de565b61268060408301866121de565b61268d6060830185612256565b61269a60808301846121de565b9695505050505050565b60006060820190506126b9600083018661247e565b6126c6602083018561247e565b81810360408301526126d881846122d7565b9050949350505050565b60006060820190506126f7600083018661247e565b612704602083018561247e565b81810360408301526127168184612265565b9050949350505050565b6000604051905081810181811067ffffffffffffffff8211171561274357600080fd5b8060405250919050565b600067ffffffffffffffff82111561276457600080fd5b601f19601f8301169050602081019050919050565b6000602082019050919050565b600081519050919050565b600081519050919050565b600081519050919050565b6000602082019050919050565b600082825260208201905092915050565b600082825260208201905092915050565b600082825260208201905092915050565b60006127f282612805565b9050919050565b60008115159050919050565b600073ffffffffffffffffffffffffffffffffffffffff82169050919050565b6000819050919050565b600061283a8261284d565b9050919050565b60008115159050919050565b600073ffffffffffffffffffffffffffffffffffffffff82169050919050565b6000819050919050565b600061288282612889565b9050919050565b60006128948261289b565b9050919050565b60006128a682612805565b9050919050565b82818337600083830152505050565b60005b838110156128da5780820151818401526020810190506128bf565b838111156128e9576000848401525b50505050565b6000601f19601f830116905091905056fea265627a7a723058207e751cf62e684406b44eb5900decfa6fd08fc0cb7eb5182a21678a07962263c76c6578706572696d656e74616cf50037",
  "source": "pragma solidity ^0.5.0;\npragma experimental ABIEncoderV2;\n\ncontract FLibra {\n\n  address constant temporaryPurchaser = address(0);\n  uint256 internal itemId = 0;\n  uint256[] public onSaleItems;\n\n  Item[] public allItems; \n\n  mapping(address => uint[]) public myItemId;\n  mapping(address => uint[]) public myPurchasedItemId;\n  mapping(address => User) public UserInfo;\n  mapping(uint256 => SellerReview) public reviewToSeller;\n  mapping(uint256 => PurchaserReview) public reviewToPurchaser;\n\n  // structs\n  struct Item {\n    uint256 id;\n    address itemDetailContract;\n    address seller;\n    bool selling;\n    address purchaser;\n  }\n\n  struct User {\n    address userAddress;\n    string userName;\n    string userIcon;\n  }\n\n  struct SellerReview {\n    uint256 itemId;\n    uint256 star;\n    string text;\n  }\n\n  struct PurchaserReview {\n    uint256 itemId;\n    uint256 star;\n    string text;\n  }\n\n  //events\n  event PostItem(uint256 id, address itemDetailContract, address seller, bool selling, address purchaser);\n  event ItemPurchased(uint256 id, address purchaser);\n  // EditItem(uint256 id, string itemName, uint256 price);\n  event UserInfoCreated(address userAddress, string userName, string userIcon);\n  event WriteReviewToSeller(uint256 itemId, uint256 star, string text);\n  event WriteReviewToPurchaser(uint256 itemId, uint256 star, string text);\n\n  constructor() public {\n\n  }\n\n  // -------- Create user info --------\n  function setUserInfo(string memory _userName, string memory _userIcon) public {\n    UserInfo[msg.sender] = User(msg.sender, _userName, _userIcon);\n    emit UserInfoCreated(msg.sender, _userName, _userIcon);\n  } \n\n  // -------- Post a Item --------\n  function postItem(address _itemDetailContract) public {\n    itemId = itemId + 1;\n    allItems.push(Item(itemId, _itemDetailContract, msg.sender, true, temporaryPurchaser));\n    myItemId[msg.sender].push(itemId);\n    //onSaleItems[allItems[itemId].selling].push(allItems[itemId].id);\n    emit PostItem(itemId, _itemDetailContract, msg.sender, true, temporaryPurchaser);\n  }\n\n  // -------- Purchase a Item --------\n  function purchaseItem(uint256 _id) public {\n    Item memory _item = allItems[_id];\n    _item.selling = bool(false);\n    _item.purchaser = msg.sender;\n    allItems[_id] = _item;\n    myPurchasedItemId[msg.sender].push(_id);\n    emit ItemPurchased(_id, msg.sender);\n  }\n\n  // -------- Edit a Item --------\n  // function editItem(uint256 _id, string memory _itemName, uint256 _price) public {\n  //   require(allItems[_id].seller == msg.sender);\n  //   Item memory _item = allItems[_id];\n  //   _item.itemName = _itemName;\n  //   _item.price = _price;\n  //   allItems[_id] = _item;\n  //   emit EditItem(_id, _itemName, _price);\n  // }\n\n  // -------- Write Review to Seller --------\n  function writeReviewToSeller(uint256 _id, uint256 _star, string memory _text) public {\n    require(allItems[_id].selling == bool(false));\n    require(allItems[_id].purchaser == msg.sender);\n    reviewToSeller[_id] = SellerReview(_id, _star, _text);\n    emit WriteReviewToSeller(_id, _star, _text);\n  }\n\n  // -------- Write Review to Purchaser --------\n  function writeReviewToPurchaser(uint256 _id, uint256 _star, string memory _text) public {\n    require(allItems[_id].selling == bool(false));\n    require(allItems[_id].seller == msg.sender);\n    reviewToPurchaser[_id] = PurchaserReview(_id, _star, _text);\n    emit WriteReviewToPurchaser(_id, _star, _text);\n  }\n\n  // -------- My Items --------\n  function getMyItemId(address _address) public view returns (uint[] memory) {\n    return myItemId[_address];\n  }\n\n  function getMyItem(uint256 _id) public view returns (Item memory) {\n    return allItems[_id];\n  } \n\n  // -------- All Items --------\n  function getNumberOfItem() public view returns (uint256) {\n    return allItems.length;\n  }\n\n  function getAllItem(uint256 _id) public view returns (Item memory) {\n    return allItems[_id];\n  } \n\n  // -------- On Sale Items --------\n  function getOnSaleItemsId(bool _selling) public view returns (uint[] memory) {\n\n  }\n\n  function getItemOnSale(uint256 _id) public view returns (Item memory) {\n    if (allItems[_id].selling == bool(true)) {\n      return allItems[_id];\n    }\n  }\n\n  // -------- My Purchased Items --------\n  function getMyPurchasedItemId(address _address) public view returns (uint[] memory) {\n    return myPurchasedItemId[_address];\n  }\n\n  function getMyPurchasedItem(uint256 _id) public view returns (Item memory) {\n    require(allItems[_id].selling == bool(false) );\n    return allItems[_id];\n  } \n\n  // -------- UserInfo --------\n  function getUserInfo(address _userAddress) public view returns (User memory) {\n    return UserInfo[_userAddress];\n  }\n\n  // -------- Review --------\n  function getSellerReview(uint256 _id) public view returns (SellerReview memory) {\n    return reviewToSeller[_id];\n  } \n\n  function getPurchaserReview(uint256 _id) public view returns (PurchaserReview memory) {\n    return reviewToPurchaser[_id];\n  } \n}",
  "sourcePath": "/Users/yosuke.aramaki/Desktop/proto/fLibra/truffle/contracts/Flibra.sol",
  "compiler": {
    "name": "solc",
    "version": "0.5.7+commit.6da8b019.Darwin.appleclang"
  },
  "schemaVersion": "3.0.0",
  "updatedAt": "2019-10-29T05:25:45.258Z",
  "devdoc": {
    "methods": {}
  },
  "userdoc": {
    "methods": {}
  }
}