{
  "contractName": "FLibra",
  "abi": [
    {
      "constant": true,
      "inputs": [
        {
          "name": "",
          "type": "address"
        },
        {
          "name": "",
          "type": "uint256"
        }
      ],
      "name": "myPurchasedItemId",
      "outputs": [
        {
          "name": "",
          "type": "uint256"
        }
      ],
      "payable": false,
      "stateMutability": "view",
      "type": "function",
      "signature": "0x053872dd"
    },
    {
      "constant": true,
      "inputs": [
        {
          "name": "",
          "type": "uint256"
        }
      ],
      "name": "reviewToPurchaser",
      "outputs": [
        {
          "name": "itemId",
          "type": "uint256"
        },
        {
          "name": "star",
          "type": "uint256"
        },
        {
          "name": "text",
          "type": "string"
        }
      ],
      "payable": false,
      "stateMutability": "view",
      "type": "function",
      "signature": "0x342803a6"
    },
    {
      "constant": true,
      "inputs": [
        {
          "name": "",
          "type": "uint256"
        }
      ],
      "name": "onSaleItems",
      "outputs": [
        {
          "name": "",
          "type": "uint256"
        }
      ],
      "payable": false,
      "stateMutability": "view",
      "type": "function",
      "signature": "0x4495f9aa"
    },
    {
      "constant": true,
      "inputs": [
        {
          "name": "",
          "type": "address"
        },
        {
          "name": "",
          "type": "uint256"
        }
      ],
      "name": "myItemId",
      "outputs": [
        {
          "name": "",
          "type": "uint256"
        }
      ],
      "payable": false,
      "stateMutability": "view",
      "type": "function",
      "signature": "0x7d007351"
    },
    {
      "constant": true,
      "inputs": [
        {
          "name": "",
          "type": "address"
        }
      ],
      "name": "UserInfo",
      "outputs": [
        {
          "name": "userAddress",
          "type": "address"
        },
        {
          "name": "userName",
          "type": "string"
        },
        {
          "name": "userIcon",
          "type": "string"
        }
      ],
      "payable": false,
      "stateMutability": "view",
      "type": "function",
      "signature": "0xe377ee1b"
    },
    {
      "constant": true,
      "inputs": [
        {
          "name": "",
          "type": "uint256"
        }
      ],
      "name": "reviewToSeller",
      "outputs": [
        {
          "name": "itemId",
          "type": "uint256"
        },
        {
          "name": "star",
          "type": "uint256"
        },
        {
          "name": "text",
          "type": "string"
        }
      ],
      "payable": false,
      "stateMutability": "view",
      "type": "function",
      "signature": "0xfa0626a3"
    },
    {
      "constant": true,
      "inputs": [
        {
          "name": "",
          "type": "uint256"
        }
      ],
      "name": "allItems",
      "outputs": [
        {
          "name": "id",
          "type": "uint256"
        },
        {
          "name": "itemName",
          "type": "string"
        },
        {
          "name": "itemPhoto",
          "type": "string"
        },
        {
          "name": "price",
          "type": "uint256"
        },
        {
          "name": "seller",
          "type": "address"
        },
        {
          "name": "selling",
          "type": "bool"
        },
        {
          "name": "purchaser",
          "type": "address"
        }
      ],
      "payable": false,
      "stateMutability": "view",
      "type": "function",
      "signature": "0xff68fa6e"
    },
    {
      "inputs": [],
      "payable": false,
      "stateMutability": "nonpayable",
      "type": "constructor",
      "signature": "constructor"
    },
    {
      "anonymous": false,
      "inputs": [
        {
          "indexed": false,
          "name": "id",
          "type": "uint256"
        },
        {
          "indexed": false,
          "name": "itemName",
          "type": "string"
        },
        {
          "indexed": false,
          "name": "price",
          "type": "uint256"
        },
        {
          "indexed": false,
          "name": "seller",
          "type": "address"
        },
        {
          "indexed": false,
          "name": "selling",
          "type": "bool"
        },
        {
          "indexed": false,
          "name": "purchaser",
          "type": "address"
        }
      ],
      "name": "PostItem",
      "type": "event",
      "signature": "0xa6c41b3428ddb2be08b190312c47e37d36f7a61d4577adbcceb40f9f2299588a"
    },
    {
      "anonymous": false,
      "inputs": [
        {
          "indexed": false,
          "name": "id",
          "type": "uint256"
        },
        {
          "indexed": false,
          "name": "purchaser",
          "type": "address"
        }
      ],
      "name": "ItemPurchased",
      "type": "event",
      "signature": "0x7ce670ea54227685ed72f8669179c51b47ba2251ce7cfac367725a7b8f9b743d"
    },
    {
      "anonymous": false,
      "inputs": [
        {
          "indexed": false,
          "name": "id",
          "type": "uint256"
        },
        {
          "indexed": false,
          "name": "itemName",
          "type": "string"
        },
        {
          "indexed": false,
          "name": "price",
          "type": "uint256"
        }
      ],
      "name": "EditItem",
      "type": "event",
      "signature": "0x48931a1d7df3fc79052ba35e8d7b596ae44897b0bf5b1bdf6e23e65db4d6878d"
    },
    {
      "anonymous": false,
      "inputs": [
        {
          "indexed": false,
          "name": "userAddress",
          "type": "address"
        },
        {
          "indexed": false,
          "name": "userName",
          "type": "string"
        },
        {
          "indexed": false,
          "name": "userIcon",
          "type": "string"
        }
      ],
      "name": "UserInfoCreated",
      "type": "event",
      "signature": "0x71abc9615cdbbfda862d7e14f436c9d348b613195888917cce5042f33b40958b"
    },
    {
      "anonymous": false,
      "inputs": [
        {
          "indexed": false,
          "name": "itemId",
          "type": "uint256"
        },
        {
          "indexed": false,
          "name": "star",
          "type": "uint256"
        },
        {
          "indexed": false,
          "name": "text",
          "type": "string"
        }
      ],
      "name": "WriteReviewToSeller",
      "type": "event",
      "signature": "0x2da3ea64410ead21f3ff98fbcddd5a3c9e297be46413dfbda5f69ca8c4afa64e"
    },
    {
      "anonymous": false,
      "inputs": [
        {
          "indexed": false,
          "name": "itemId",
          "type": "uint256"
        },
        {
          "indexed": false,
          "name": "star",
          "type": "uint256"
        },
        {
          "indexed": false,
          "name": "text",
          "type": "string"
        }
      ],
      "name": "WriteReviewToPurchaser",
      "type": "event",
      "signature": "0xc0c0cf8f27a90e3b9862a6149eb84b21e1bbf195b7087b14e20dd272e7463d6f"
    },
    {
      "constant": false,
      "inputs": [
        {
          "name": "_userName",
          "type": "string"
        },
        {
          "name": "_userIcon",
          "type": "string"
        }
      ],
      "name": "setUserInfo",
      "outputs": [],
      "payable": false,
      "stateMutability": "nonpayable",
      "type": "function",
      "signature": "0xe21eabed"
    },
    {
      "constant": false,
      "inputs": [
        {
          "name": "_itemName",
          "type": "string"
        },
        {
          "name": "_itemPhoto",
          "type": "string"
        },
        {
          "name": "_price",
          "type": "uint256"
        }
      ],
      "name": "setItem",
      "outputs": [],
      "payable": false,
      "stateMutability": "nonpayable",
      "type": "function",
      "signature": "0x76ab890e"
    },
    {
      "constant": false,
      "inputs": [
        {
          "name": "_id",
          "type": "uint256"
        }
      ],
      "name": "purchaseItem",
      "outputs": [],
      "payable": false,
      "stateMutability": "nonpayable",
      "type": "function",
      "signature": "0xd38ea5bf"
    },
    {
      "constant": false,
      "inputs": [
        {
          "name": "_id",
          "type": "uint256"
        },
        {
          "name": "_itemName",
          "type": "string"
        },
        {
          "name": "_price",
          "type": "uint256"
        }
      ],
      "name": "editItem",
      "outputs": [],
      "payable": false,
      "stateMutability": "nonpayable",
      "type": "function",
      "signature": "0xa21a74b2"
    },
    {
      "constant": false,
      "inputs": [
        {
          "name": "_id",
          "type": "uint256"
        },
        {
          "name": "_star",
          "type": "uint256"
        },
        {
          "name": "_text",
          "type": "string"
        }
      ],
      "name": "writeReviewToSeller",
      "outputs": [],
      "payable": false,
      "stateMutability": "nonpayable",
      "type": "function",
      "signature": "0xa77d898f"
    },
    {
      "constant": false,
      "inputs": [
        {
          "name": "_id",
          "type": "uint256"
        },
        {
          "name": "_star",
          "type": "uint256"
        },
        {
          "name": "_text",
          "type": "string"
        }
      ],
      "name": "writeReviewToPurchaser",
      "outputs": [],
      "payable": false,
      "stateMutability": "nonpayable",
      "type": "function",
      "signature": "0x60e0c149"
    },
    {
      "constant": true,
      "inputs": [
        {
          "name": "_address",
          "type": "address"
        }
      ],
      "name": "getMyItemId",
      "outputs": [
        {
          "name": "",
          "type": "uint256[]"
        }
      ],
      "payable": false,
      "stateMutability": "view",
      "type": "function",
      "signature": "0x1fda9105"
    },
    {
      "constant": true,
      "inputs": [
        {
          "name": "_id",
          "type": "uint256"
        }
      ],
      "name": "getMyItem",
      "outputs": [
        {
          "components": [
            {
              "name": "id",
              "type": "uint256"
            },
            {
              "name": "itemName",
              "type": "string"
            },
            {
              "name": "itemPhoto",
              "type": "string"
            },
            {
              "name": "price",
              "type": "uint256"
            },
            {
              "name": "seller",
              "type": "address"
            },
            {
              "name": "selling",
              "type": "bool"
            },
            {
              "name": "purchaser",
              "type": "address"
            }
          ],
          "name": "",
          "type": "tuple"
        }
      ],
      "payable": false,
      "stateMutability": "view",
      "type": "function",
      "signature": "0x2877d196"
    },
    {
      "constant": true,
      "inputs": [],
      "name": "getNumberOfItem",
      "outputs": [
        {
          "name": "",
          "type": "uint256"
        }
      ],
      "payable": false,
      "stateMutability": "view",
      "type": "function",
      "signature": "0x61978244"
    },
    {
      "constant": true,
      "inputs": [
        {
          "name": "_id",
          "type": "uint256"
        }
      ],
      "name": "getAllItem",
      "outputs": [
        {
          "components": [
            {
              "name": "id",
              "type": "uint256"
            },
            {
              "name": "itemName",
              "type": "string"
            },
            {
              "name": "itemPhoto",
              "type": "string"
            },
            {
              "name": "price",
              "type": "uint256"
            },
            {
              "name": "seller",
              "type": "address"
            },
            {
              "name": "selling",
              "type": "bool"
            },
            {
              "name": "purchaser",
              "type": "address"
            }
          ],
          "name": "",
          "type": "tuple"
        }
      ],
      "payable": false,
      "stateMutability": "view",
      "type": "function",
      "signature": "0x36fcee3b"
    },
    {
      "constant": true,
      "inputs": [
        {
          "name": "_selling",
          "type": "bool"
        }
      ],
      "name": "getOnSaleItemsId",
      "outputs": [
        {
          "name": "",
          "type": "uint256[]"
        }
      ],
      "payable": false,
      "stateMutability": "view",
      "type": "function",
      "signature": "0xf91aa97f"
    },
    {
      "constant": true,
      "inputs": [
        {
          "name": "_id",
          "type": "uint256"
        }
      ],
      "name": "getItemOnSale",
      "outputs": [
        {
          "components": [
            {
              "name": "id",
              "type": "uint256"
            },
            {
              "name": "itemName",
              "type": "string"
            },
            {
              "name": "itemPhoto",
              "type": "string"
            },
            {
              "name": "price",
              "type": "uint256"
            },
            {
              "name": "seller",
              "type": "address"
            },
            {
              "name": "selling",
              "type": "bool"
            },
            {
              "name": "purchaser",
              "type": "address"
            }
          ],
          "name": "",
          "type": "tuple"
        }
      ],
      "payable": false,
      "stateMutability": "view",
      "type": "function",
      "signature": "0xd399e230"
    },
    {
      "constant": true,
      "inputs": [
        {
          "name": "_address",
          "type": "address"
        }
      ],
      "name": "getMyPurchasedItemId",
      "outputs": [
        {
          "name": "",
          "type": "uint256[]"
        }
      ],
      "payable": false,
      "stateMutability": "view",
      "type": "function",
      "signature": "0x81e84ee8"
    },
    {
      "constant": true,
      "inputs": [
        {
          "name": "_id",
          "type": "uint256"
        }
      ],
      "name": "getMyPurchasedItem",
      "outputs": [
        {
          "components": [
            {
              "name": "id",
              "type": "uint256"
            },
            {
              "name": "itemName",
              "type": "string"
            },
            {
              "name": "itemPhoto",
              "type": "string"
            },
            {
              "name": "price",
              "type": "uint256"
            },
            {
              "name": "seller",
              "type": "address"
            },
            {
              "name": "selling",
              "type": "bool"
            },
            {
              "name": "purchaser",
              "type": "address"
            }
          ],
          "name": "",
          "type": "tuple"
        }
      ],
      "payable": false,
      "stateMutability": "view",
      "type": "function",
      "signature": "0xc7bff60e"
    },
    {
      "constant": true,
      "inputs": [
        {
          "name": "_userAddress",
          "type": "address"
        }
      ],
      "name": "getUserInfo",
      "outputs": [
        {
          "components": [
            {
              "name": "userAddress",
              "type": "address"
            },
            {
              "name": "userName",
              "type": "string"
            },
            {
              "name": "userIcon",
              "type": "string"
            }
          ],
          "name": "",
          "type": "tuple"
        }
      ],
      "payable": false,
      "stateMutability": "view",
      "type": "function",
      "signature": "0x6386c1c7"
    },
    {
      "constant": true,
      "inputs": [
        {
          "name": "_id",
          "type": "uint256"
        }
      ],
      "name": "getSellerReview",
      "outputs": [
        {
          "components": [
            {
              "name": "itemId",
              "type": "uint256"
            },
            {
              "name": "star",
              "type": "uint256"
            },
            {
              "name": "text",
              "type": "string"
            }
          ],
          "name": "",
          "type": "tuple"
        }
      ],
      "payable": false,
      "stateMutability": "view",
      "type": "function",
      "signature": "0x4a05f128"
    },
    {
      "constant": true,
      "inputs": [
        {
          "name": "_id",
          "type": "uint256"
        }
      ],
      "name": "getPurchaserReview",
      "outputs": [
        {
          "components": [
            {
              "name": "itemId",
              "type": "uint256"
            },
            {
              "name": "star",
              "type": "uint256"
            },
            {
              "name": "text",
              "type": "string"
            }
          ],
          "name": "",
          "type": "tuple"
        }
      ],
      "payable": false,
      "stateMutability": "view",
      "type": "function",
      "signature": "0xbbb3da62"
    }
  ],
  "bytecode": "0x60806040526000805534801561001457600080fd5b5061351c806100246000396000f3fe608060405234801561001057600080fd5b5060043610610175576000357c01000000000000000000000000000000000000000000000000000000009004806381e84ee8116100e0578063d399e23011610099578063d399e23014610466578063e21eabed14610496578063e377ee1b146104b2578063f91aa97f146104e4578063fa0626a314610514578063ff68fa6e1461054657610175565b806381e84ee814610382578063a21a74b2146103b2578063a77d898f146103ce578063bbb3da62146103ea578063c7bff60e1461041a578063d38ea5bf1461044a57610175565b80634a05f128116101325780634a05f1281461029c57806360e0c149146102cc57806361978244146102e85780636386c1c71461030657806376ab890e146103365780637d0073511461035257610175565b8063053872dd1461017a5780631fda9105146101aa5780632877d196146101da578063342803a61461020a57806336fcee3b1461023c5780634495f9aa1461026c575b600080fd5b610194600480360361018f9190810190612a84565b61057c565b6040516101a1919061311f565b60405180910390f35b6101c460048036036101bf9190810190612a5b565b6105aa565b6040516101d19190613075565b60405180910390f35b6101f460048036036101ef9190810190612bd4565b610641565b6040516102019190613097565b60405180910390f35b610224600480360361021f9190810190612bd4565b610895565b60405161023393929190613286565b60405180910390f35b61025660048036036102519190810190612bd4565b610957565b6040516102639190613097565b60405180910390f35b61028660048036036102819190810190612bd4565b610bab565b604051610293919061311f565b60405180910390f35b6102b660048036036102b19190810190612bd4565b610bcc565b6040516102c391906130db565b60405180910390f35b6102e660048036036102e19190810190612c64565b610caf565b005b6102f0610e03565b6040516102fd919061311f565b60405180910390f35b610320600480360361031b9190810190612a5b565b610e10565b60405161032d91906130fd565b60405180910390f35b610350600480360361034b9190810190612b55565b611003565b005b61036c60048036036103679190810190612a84565b611255565b604051610379919061311f565b60405180910390f35b61039c60048036036103979190810190612a5b565b611283565b6040516103a99190613075565b60405180910390f35b6103cc60048036036103c79190810190612bfd565b61131a565b005b6103e860048036036103e39190810190612c64565b61174e565b005b61040460048036036103ff9190810190612bd4565b6118a2565b60405161041191906130b9565b60405180910390f35b610434600480360361042f9190810190612bd4565b611985565b6040516104419190613097565b60405180910390f35b610464600480360361045f9190810190612bd4565b611c15565b005b610480600480360361047b9190810190612bd4565b61206e565b60405161048d9190613097565b60405180910390f35b6104b060048036036104ab9190810190612ae9565b612300565b005b6104cc60048036036104c79190810190612a5b565b612433565b6040516104db93929190613030565b60405180910390f35b6104fe60048036036104f99190810190612ac0565b6125ad565b60405161050b9190613075565b60405180910390f35b61052e60048036036105299190810190612bd4565b6125b4565b60405161053d93929190613286565b60405180910390f35b610560600480360361055b9190810190612bd4565b612676565b6040516105739796959493929190613209565b60405180910390f35b6004602052816000526040600020818154811061059557fe5b90600052602060002001600091509150505481565b6060600360008373ffffffffffffffffffffffffffffffffffffffff1673ffffffffffffffffffffffffffffffffffffffff16815260200190815260200160002080548060200260200160405190810160405280929190818152602001828054801561063557602002820191906000526020600020905b815481526020019060010190808311610621575b50505050509050919050565b610649612842565b6002828154811061065657fe5b90600052602060002090600602016040518060e001604052908160008201548152602001600182018054600181600116156101000203166002900480601f0160208091040260200160405190810160405280929190818152602001828054600181600116156101000203166002900480156107125780601f106106e757610100808354040283529160200191610712565b820191906000526020600020905b8154815290600101906020018083116106f557829003601f168201915b50505050508152602001600282018054600181600116156101000203166002900480601f0160208091040260200160405190810160405280929190818152602001828054600181600116156101000203166002900480156107b45780601f10610789576101008083540402835291602001916107b4565b820191906000526020600020905b81548152906001019060200180831161079757829003601f168201915b50505050508152602001600382015481526020016004820160009054906101000a900473ffffffffffffffffffffffffffffffffffffffff1673ffffffffffffffffffffffffffffffffffffffff1673ffffffffffffffffffffffffffffffffffffffff1681526020016004820160149054906101000a900460ff161515151581526020016005820160009054906101000a900473ffffffffffffffffffffffffffffffffffffffff1673ffffffffffffffffffffffffffffffffffffffff1673ffffffffffffffffffffffffffffffffffffffff16815250509050919050565b6007602052806000526040600020600091509050806000015490806001015490806002018054600181600116156101000203166002900480601f01602080910402602001604051908101604052809291908181526020018280546001816001161561010002031660029004801561094d5780601f106109225761010080835404028352916020019161094d565b820191906000526020600020905b81548152906001019060200180831161093057829003601f168201915b5050505050905083565b61095f612842565b6002828154811061096c57fe5b90600052602060002090600602016040518060e001604052908160008201548152602001600182018054600181600116156101000203166002900480601f016020809104026020016040519081016040528092919081815260200182805460018160011615610100020316600290048015610a285780601f106109fd57610100808354040283529160200191610a28565b820191906000526020600020905b815481529060010190602001808311610a0b57829003601f168201915b50505050508152602001600282018054600181600116156101000203166002900480601f016020809104026020016040519081016040528092919081815260200182805460018160011615610100020316600290048015610aca5780601f10610a9f57610100808354040283529160200191610aca565b820191906000526020600020905b815481529060010190602001808311610aad57829003601f168201915b50505050508152602001600382015481526020016004820160009054906101000a900473ffffffffffffffffffffffffffffffffffffffff1673ffffffffffffffffffffffffffffffffffffffff1673ffffffffffffffffffffffffffffffffffffffff1681526020016004820160149054906101000a900460ff161515151581526020016005820160009054906101000a900473ffffffffffffffffffffffffffffffffffffffff1673ffffffffffffffffffffffffffffffffffffffff1673ffffffffffffffffffffffffffffffffffffffff16815250509050919050565b60018181548110610bb857fe5b906000526020600020016000915090505481565b610bd46128ad565b600660008381526020019081526020016000206040518060600160405290816000820154815260200160018201548152602001600282018054600181600116156101000203166002900480601f016020809104026020016040519081016040528092919081815260200182805460018160011615610100020316600290048015610c9f5780601f10610c7457610100808354040283529160200191610c9f565b820191906000526020600020905b815481529060010190602001808311610c8257829003601f168201915b5050505050815250509050919050565b6000151560028481548110610cc057fe5b906000526020600020906006020160040160149054906101000a900460ff16151514610ceb57600080fd5b3373ffffffffffffffffffffffffffffffffffffffff1660028481548110610d0f57fe5b906000526020600020906006020160040160009054906101000a900473ffffffffffffffffffffffffffffffffffffffff1673ffffffffffffffffffffffffffffffffffffffff1614610d6157600080fd5b6040518060600160405280848152602001838152602001828152506007600085815260200190815260200160002060008201518160000155602082015181600101556040820151816002019080519060200190610dbf9291906128ce565b509050507fc0c0cf8f27a90e3b9862a6149eb84b21e1bbf195b7087b14e20dd272e7463d6f838383604051610df6939291906132c4565b60405180910390a1505050565b6000600280549050905090565b610e1861294e565b600560008373ffffffffffffffffffffffffffffffffffffffff1673ffffffffffffffffffffffffffffffffffffffff1681526020019081526020016000206040518060600160405290816000820160009054906101000a900473ffffffffffffffffffffffffffffffffffffffff1673ffffffffffffffffffffffffffffffffffffffff1673ffffffffffffffffffffffffffffffffffffffff168152602001600182018054600181600116156101000203166002900480601f016020809104026020016040519081016040528092919081815260200182805460018160011615610100020316600290048015610f515780601f10610f2657610100808354040283529160200191610f51565b820191906000526020600020905b815481529060010190602001808311610f3457829003601f168201915b50505050508152602001600282018054600181600116156101000203166002900480601f016020809104026020016040519081016040528092919081815260200182805460018160011615610100020316600290048015610ff35780601f10610fc857610100808354040283529160200191610ff3565b820191906000526020600020905b815481529060010190602001808311610fd657829003601f168201915b5050505050815250509050919050565b60026040518060e0016040528060005481526020018581526020018481526020018381526020013373ffffffffffffffffffffffffffffffffffffffff168152602001600115158152602001600073ffffffffffffffffffffffffffffffffffffffff16815250908060018154018082558091505090600182039060005260206000209060060201600090919290919091506000820151816000015560208201518160010190805190602001906110bb9291906128ce565b5060408201518160020190805190602001906110d89291906128ce565b506060820151816003015560808201518160040160006101000a81548173ffffffffffffffffffffffffffffffffffffffff021916908373ffffffffffffffffffffffffffffffffffffffff16021790555060a08201518160040160146101000a81548160ff02191690831515021790555060c08201518160050160006101000a81548173ffffffffffffffffffffffffffffffffffffffff021916908373ffffffffffffffffffffffffffffffffffffffff160217905550505050600360003373ffffffffffffffffffffffffffffffffffffffff1673ffffffffffffffffffffffffffffffffffffffff16815260200190815260200160002060005490806001815401808255809150509060018203906000526020600020016000909192909190915055507fa6c41b3428ddb2be08b190312c47e37d36f7a61d4577adbcceb40f9f2299588a6000548483336001600060405161123c969594939291906131a1565b60405180910390a1600160005401600081905550505050565b6003602052816000526040600020818154811061126e57fe5b90600052602060002001600091509150505481565b6060600460008373ffffffffffffffffffffffffffffffffffffffff1673ffffffffffffffffffffffffffffffffffffffff16815260200190815260200160002080548060200260200160405190810160405280929190818152602001828054801561130e57602002820191906000526020600020905b8154815260200190600101908083116112fa575b50505050509050919050565b3373ffffffffffffffffffffffffffffffffffffffff166002848154811061133e57fe5b906000526020600020906006020160040160009054906101000a900473ffffffffffffffffffffffffffffffffffffffff1673ffffffffffffffffffffffffffffffffffffffff161461139057600080fd5b611398612842565b600284815481106113a557fe5b90600052602060002090600602016040518060e001604052908160008201548152602001600182018054600181600116156101000203166002900480601f0160208091040260200160405190810160405280929190818152602001828054600181600116156101000203166002900480156114615780601f1061143657610100808354040283529160200191611461565b820191906000526020600020905b81548152906001019060200180831161144457829003601f168201915b50505050508152602001600282018054600181600116156101000203166002900480601f0160208091040260200160405190810160405280929190818152602001828054600181600116156101000203166002900480156115035780601f106114d857610100808354040283529160200191611503565b820191906000526020600020905b8154815290600101906020018083116114e657829003601f168201915b50505050508152602001600382015481526020016004820160009054906101000a900473ffffffffffffffffffffffffffffffffffffffff1673ffffffffffffffffffffffffffffffffffffffff1673ffffffffffffffffffffffffffffffffffffffff1681526020016004820160149054906101000a900460ff161515151581526020016005820160009054906101000a900473ffffffffffffffffffffffffffffffffffffffff1673ffffffffffffffffffffffffffffffffffffffff1673ffffffffffffffffffffffffffffffffffffffff1681525050905082816020018190525081816060018181525050806002858154811061160057fe5b90600052602060002090600602016000820151816000015560208201518160010190805190602001906116349291906128ce565b5060408201518160020190805190602001906116519291906128ce565b506060820151816003015560808201518160040160006101000a81548173ffffffffffffffffffffffffffffffffffffffff021916908373ffffffffffffffffffffffffffffffffffffffff16021790555060a08201518160040160146101000a81548160ff02191690831515021790555060c08201518160050160006101000a81548173ffffffffffffffffffffffffffffffffffffffff021916908373ffffffffffffffffffffffffffffffffffffffff1602179055509050507f48931a1d7df3fc79052ba35e8d7b596ae44897b0bf5b1bdf6e23e65db4d6878d84848460405161174093929190613163565b60405180910390a150505050565b600015156002848154811061175f57fe5b906000526020600020906006020160040160149054906101000a900460ff1615151461178a57600080fd5b3373ffffffffffffffffffffffffffffffffffffffff16600284815481106117ae57fe5b906000526020600020906006020160050160009054906101000a900473ffffffffffffffffffffffffffffffffffffffff1673ffffffffffffffffffffffffffffffffffffffff161461180057600080fd5b604051806060016040528084815260200183815260200182815250600660008581526020019081526020016000206000820151816000015560208201518160010155604082015181600201908051906020019061185e9291906128ce565b509050507f2da3ea64410ead21f3ff98fbcddd5a3c9e297be46413dfbda5f69ca8c4afa64e838383604051611895939291906132c4565b60405180910390a1505050565b6118aa612985565b600760008381526020019081526020016000206040518060600160405290816000820154815260200160018201548152602001600282018054600181600116156101000203166002900480601f0160208091040260200160405190810160405280929190818152602001828054600181600116156101000203166002900480156119755780601f1061194a57610100808354040283529160200191611975565b820191906000526020600020905b81548152906001019060200180831161195857829003601f168201915b5050505050815250509050919050565b61198d612842565b600015156002838154811061199e57fe5b906000526020600020906006020160040160149054906101000a900460ff161515146119c957600080fd5b600282815481106119d657fe5b90600052602060002090600602016040518060e001604052908160008201548152602001600182018054600181600116156101000203166002900480601f016020809104026020016040519081016040528092919081815260200182805460018160011615610100020316600290048015611a925780601f10611a6757610100808354040283529160200191611a92565b820191906000526020600020905b815481529060010190602001808311611a7557829003601f168201915b50505050508152602001600282018054600181600116156101000203166002900480601f016020809104026020016040519081016040528092919081815260200182805460018160011615610100020316600290048015611b345780601f10611b0957610100808354040283529160200191611b34565b820191906000526020600020905b815481529060010190602001808311611b1757829003601f168201915b50505050508152602001600382015481526020016004820160009054906101000a900473ffffffffffffffffffffffffffffffffffffffff1673ffffffffffffffffffffffffffffffffffffffff1673ffffffffffffffffffffffffffffffffffffffff1681526020016004820160149054906101000a900460ff161515151581526020016005820160009054906101000a900473ffffffffffffffffffffffffffffffffffffffff1673ffffffffffffffffffffffffffffffffffffffff1673ffffffffffffffffffffffffffffffffffffffff16815250509050919050565b611c1d612842565b60028281548110611c2a57fe5b90600052602060002090600602016040518060e001604052908160008201548152602001600182018054600181600116156101000203166002900480601f016020809104026020016040519081016040528092919081815260200182805460018160011615610100020316600290048015611ce65780601f10611cbb57610100808354040283529160200191611ce6565b820191906000526020600020905b815481529060010190602001808311611cc957829003601f168201915b50505050508152602001600282018054600181600116156101000203166002900480601f016020809104026020016040519081016040528092919081815260200182805460018160011615610100020316600290048015611d885780601f10611d5d57610100808354040283529160200191611d88565b820191906000526020600020905b815481529060010190602001808311611d6b57829003601f168201915b50505050508152602001600382015481526020016004820160009054906101000a900473ffffffffffffffffffffffffffffffffffffffff1673ffffffffffffffffffffffffffffffffffffffff1673ffffffffffffffffffffffffffffffffffffffff1681526020016004820160149054906101000a900460ff161515151581526020016005820160009054906101000a900473ffffffffffffffffffffffffffffffffffffffff1673ffffffffffffffffffffffffffffffffffffffff1673ffffffffffffffffffffffffffffffffffffffff1681525050905060008160a0019015159081151581525050338160c0019073ffffffffffffffffffffffffffffffffffffffff16908173ffffffffffffffffffffffffffffffffffffffff16815250508060028381548110611ebb57fe5b9060005260206000209060060201600082015181600001556020820151816001019080519060200190611eef9291906128ce565b506040820151816002019080519060200190611f0c9291906128ce565b506060820151816003015560808201518160040160006101000a81548173ffffffffffffffffffffffffffffffffffffffff021916908373ffffffffffffffffffffffffffffffffffffffff16021790555060a08201518160040160146101000a81548160ff02191690831515021790555060c08201518160050160006101000a81548173ffffffffffffffffffffffffffffffffffffffff021916908373ffffffffffffffffffffffffffffffffffffffff160217905550905050600460003373ffffffffffffffffffffffffffffffffffffffff1673ffffffffffffffffffffffffffffffffffffffff1681526020019081526020016000208290806001815401808255809150509060018203906000526020600020016000909192909190915055507f7ce670ea54227685ed72f8669179c51b47ba2251ce7cfac367725a7b8f9b743d823360405161206292919061313a565b60405180910390a15050565b612076612842565b600115156002838154811061208757fe5b906000526020600020906006020160040160149054906101000a900460ff16151514156122fa57600282815481106120bb57fe5b90600052602060002090600602016040518060e001604052908160008201548152602001600182018054600181600116156101000203166002900480601f0160208091040260200160405190810160405280929190818152602001828054600181600116156101000203166002900480156121775780601f1061214c57610100808354040283529160200191612177565b820191906000526020600020905b81548152906001019060200180831161215a57829003601f168201915b50505050508152602001600282018054600181600116156101000203166002900480601f0160208091040260200160405190810160405280929190818152602001828054600181600116156101000203166002900480156122195780601f106121ee57610100808354040283529160200191612219565b820191906000526020600020905b8154815290600101906020018083116121fc57829003601f168201915b50505050508152602001600382015481526020016004820160009054906101000a900473ffffffffffffffffffffffffffffffffffffffff1673ffffffffffffffffffffffffffffffffffffffff1673ffffffffffffffffffffffffffffffffffffffff1681526020016004820160149054906101000a900460ff161515151581526020016005820160009054906101000a900473ffffffffffffffffffffffffffffffffffffffff1673ffffffffffffffffffffffffffffffffffffffff1673ffffffffffffffffffffffffffffffffffffffff168152505090506122fb565b5b919050565b60405180606001604052803373ffffffffffffffffffffffffffffffffffffffff16815260200183815260200182815250600560003373ffffffffffffffffffffffffffffffffffffffff1673ffffffffffffffffffffffffffffffffffffffff16815260200190815260200160002060008201518160000160006101000a81548173ffffffffffffffffffffffffffffffffffffffff021916908373ffffffffffffffffffffffffffffffffffffffff16021790555060208201518160010190805190602001906123d39291906128ce565b5060408201518160020190805190602001906123f09291906128ce565b509050507f71abc9615cdbbfda862d7e14f436c9d348b613195888917cce5042f33b40958b33838360405161242793929190612feb565b60405180910390a15050565b60056020528060005260406000206000915090508060000160009054906101000a900473ffffffffffffffffffffffffffffffffffffffff1690806001018054600181600116156101000203166002900480601f0160208091040260200160405190810160405280929190818152602001828054600181600116156101000203166002900480156125055780601f106124da57610100808354040283529160200191612505565b820191906000526020600020905b8154815290600101906020018083116124e857829003601f168201915b505050505090806002018054600181600116156101000203166002900480601f0160208091040260200160405190810160405280929190818152602001828054600181600116156101000203166002900480156125a35780601f10612578576101008083540402835291602001916125a3565b820191906000526020600020905b81548152906001019060200180831161258657829003601f168201915b5050505050905083565b6060919050565b6006602052806000526040600020600091509050806000015490806001015490806002018054600181600116156101000203166002900480601f01602080910402602001604051908101604052809291908181526020018280546001816001161561010002031660029004801561266c5780601f106126415761010080835404028352916020019161266c565b820191906000526020600020905b81548152906001019060200180831161264f57829003601f168201915b5050505050905083565b6002818154811061268357fe5b9060005260206000209060060201600091509050806000015490806001018054600181600116156101000203166002900480601f0160208091040260200160405190810160405280929190818152602001828054600181600116156101000203166002900480156127355780601f1061270a57610100808354040283529160200191612735565b820191906000526020600020905b81548152906001019060200180831161271857829003601f168201915b505050505090806002018054600181600116156101000203166002900480601f0160208091040260200160405190810160405280929190818152602001828054600181600116156101000203166002900480156127d35780601f106127a8576101008083540402835291602001916127d3565b820191906000526020600020905b8154815290600101906020018083116127b657829003601f168201915b5050505050908060030154908060040160009054906101000a900473ffffffffffffffffffffffffffffffffffffffff16908060040160149054906101000a900460ff16908060050160009054906101000a900473ffffffffffffffffffffffffffffffffffffffff16905087565b6040518060e0016040528060008152602001606081526020016060815260200160008152602001600073ffffffffffffffffffffffffffffffffffffffff168152602001600015158152602001600073ffffffffffffffffffffffffffffffffffffffff1681525090565b60405180606001604052806000815260200160008152602001606081525090565b828054600181600116156101000203166002900490600052602060002090601f016020900481019282601f1061290f57805160ff191683800117855561293d565b8280016001018555821561293d579182015b8281111561293c578251825591602001919060010190612921565b5b50905061294a91906129a6565b5090565b6040518060600160405280600073ffffffffffffffffffffffffffffffffffffffff16815260200160608152602001606081525090565b60405180606001604052806000815260200160008152602001606081525090565b6129c891905b808211156129c45760008160009055506001016129ac565b5090565b90565b60006129d78235613411565b905092915050565b60006129eb8235613423565b905092915050565b600082601f830112612a0457600080fd5b8135612a17612a128261332f565b613302565b91508082526020830160208301858383011115612a3357600080fd5b612a3e83828461348f565b50505092915050565b6000612a53823561344f565b905092915050565b600060208284031215612a6d57600080fd5b6000612a7b848285016129cb565b91505092915050565b60008060408385031215612a9757600080fd5b6000612aa5858286016129cb565b9250506020612ab685828601612a47565b9150509250929050565b600060208284031215612ad257600080fd5b6000612ae0848285016129df565b91505092915050565b60008060408385031215612afc57600080fd5b600083013567ffffffffffffffff811115612b1657600080fd5b612b22858286016129f3565b925050602083013567ffffffffffffffff811115612b3f57600080fd5b612b4b858286016129f3565b9150509250929050565b600080600060608486031215612b6a57600080fd5b600084013567ffffffffffffffff811115612b8457600080fd5b612b90868287016129f3565b935050602084013567ffffffffffffffff811115612bad57600080fd5b612bb9868287016129f3565b9250506040612bca86828701612a47565b9150509250925092565b600060208284031215612be657600080fd5b6000612bf484828501612a47565b91505092915050565b600080600060608486031215612c1257600080fd5b6000612c2086828701612a47565b935050602084013567ffffffffffffffff811115612c3d57600080fd5b612c49868287016129f3565b9250506040612c5a86828701612a47565b9150509250925092565b600080600060608486031215612c7957600080fd5b6000612c8786828701612a47565b9350506020612c9886828701612a47565b925050604084013567ffffffffffffffff811115612cb557600080fd5b612cc1868287016129f3565b9150509250925092565b6000612cd78383612fcd565b60208301905092915050565b612cec81613459565b82525050565b612cfb816133c9565b82525050565b612d0a816133c9565b82525050565b6000612d1b82613368565b612d258185613396565b9350612d308361335b565b60005b82811015612d5e57612d46868351612ccb565b9550612d5182613389565b9150600181019050612d33565b50849250505092915050565b612d73816133db565b82525050565b612d82816133db565b82525050565b6000612d938261337e565b612d9d81856133b8565b9350612dad81856020860161349e565b612db6816134d1565b840191505092915050565b6000612dcc82613373565b612dd681856133a7565b9350612de681856020860161349e565b612def816134d1565b840191505092915050565b6000612e0582613373565b612e0f81856133b8565b9350612e1f81856020860161349e565b612e28816134d1565b840191505092915050565b600060e083016000830151612e4b6000860182612fcd565b5060208301518482036020860152612e638282612dc1565b91505060408301518482036040860152612e7d8282612dc1565b9150506060830151612e926060860182612fcd565b506080830151612ea56080860182612cf2565b5060a0830151612eb860a0860182612d6a565b5060c0830151612ecb60c0860182612cf2565b508091505092915050565b6000606083016000830151612eee6000860182612fcd565b506020830151612f016020860182612fcd565b5060408301518482036040860152612f198282612dc1565b9150508091505092915050565b6000606083016000830151612f3e6000860182612fcd565b506020830151612f516020860182612fcd565b5060408301518482036040860152612f698282612dc1565b9150508091505092915050565b6000606083016000830151612f8e6000860182612cf2565b5060208301518482036020860152612fa68282612dc1565b91505060408301518482036040860152612fc08282612dc1565b9150508091505092915050565b612fd681613407565b82525050565b612fe581613407565b82525050565b60006060820190506130006000830186612ce3565b81810360208301526130128185612d88565b905081810360408301526130268184612d88565b9050949350505050565b60006060820190506130456000830186612d01565b81810360208301526130578185612dfa565b9050818103604083015261306b8184612dfa565b9050949350505050565b6000602082019050818103600083015261308f8184612d10565b905092915050565b600060208201905081810360008301526130b18184612e33565b905092915050565b600060208201905081810360008301526130d38184612ed6565b905092915050565b600060208201905081810360008301526130f58184612f26565b905092915050565b600060208201905081810360008301526131178184612f76565b905092915050565b60006020820190506131346000830184612fdc565b92915050565b600060408201905061314f6000830185612fdc565b61315c6020830184612ce3565b9392505050565b60006060820190506131786000830186612fdc565b818103602083015261318a8185612d88565b90506131996040830184612fdc565b949350505050565b600060c0820190506131b66000830189612fdc565b81810360208301526131c88188612d88565b90506131d76040830187612fdc565b6131e46060830186612ce3565b6131f16080830185612d79565b6131fe60a0830184612d01565b979650505050505050565b600060e08201905061321e600083018a612fdc565b81810360208301526132308189612dfa565b905081810360408301526132448188612dfa565b90506132536060830187612fdc565b6132606080830186612d01565b61326d60a0830185612d79565b61327a60c0830184612d01565b98975050505050505050565b600060608201905061329b6000830186612fdc565b6132a86020830185612fdc565b81810360408301526132ba8184612dfa565b9050949350505050565b60006060820190506132d96000830186612fdc565b6132e66020830185612fdc565b81810360408301526132f88184612d88565b9050949350505050565b6000604051905081810181811067ffffffffffffffff8211171561332557600080fd5b8060405250919050565b600067ffffffffffffffff82111561334657600080fd5b601f19601f8301169050602081019050919050565b6000602082019050919050565b600081519050919050565b600081519050919050565b600081519050919050565b6000602082019050919050565b600082825260208201905092915050565b600082825260208201905092915050565b600082825260208201905092915050565b60006133d4826133e7565b9050919050565b60008115159050919050565b600073ffffffffffffffffffffffffffffffffffffffff82169050919050565b6000819050919050565b600061341c8261342f565b9050919050565b60008115159050919050565b600073ffffffffffffffffffffffffffffffffffffffff82169050919050565b6000819050919050565b60006134648261346b565b9050919050565b60006134768261347d565b9050919050565b6000613488826133e7565b9050919050565b82818337600083830152505050565b60005b838110156134bc5780820151818401526020810190506134a1565b838111156134cb576000848401525b50505050565b6000601f19601f830116905091905056fea265627a7a723058203c0be79bd0a1b9cf08d254d9ac0044b4e6d7b01d261dcd6378fbc0570ee99fb26c6578706572696d656e74616cf50037",
  "source": "pragma solidity ^0.5.0;\npragma experimental ABIEncoderV2;\n\ncontract FLibra {\n\n  address constant temporaryPurchaser = address(0);\n  uint256 internal itemId = 0;\n  uint256[] public onSaleItems;\n\n  Item[] public allItems; \n\n  mapping(address => uint[]) public myItemId;\n  mapping(address => uint[]) public myPurchasedItemId;\n  mapping(address => User) public UserInfo;\n  mapping(uint256 => SellerReview) public reviewToSeller;\n  mapping(uint256 => PurchaserReview) public reviewToPurchaser;\n\n  // structs\n  struct Item {\n    uint256 id;\n    string itemName;\n    string itemPhoto;\n    uint256 price;\n    address seller;\n    bool selling;\n    address purchaser;\n  }\n\n  struct User {\n    address userAddress;\n    string userName;\n    string userIcon;\n  }\n\n  struct SellerReview {\n    uint256 itemId;\n    uint256 star;\n    string text;\n  }\n\n  struct PurchaserReview {\n    uint256 itemId;\n    uint256 star;\n    string text;\n  }\n\n  //events\n  event PostItem(uint256 id, string itemName, uint256 price, address seller, bool selling, address purchaser);\n  event ItemPurchased(uint256 id, address purchaser);\n  event EditItem(uint256 id, string itemName, uint256 price);\n  event UserInfoCreated(address userAddress, string userName, string userIcon);\n  event WriteReviewToSeller(uint256 itemId, uint256 star, string text);\n  event WriteReviewToPurchaser(uint256 itemId, uint256 star, string text);\n\n  constructor() public {\n\n  }\n\n  // -------- Create user info --------\n  function setUserInfo(string memory _userName, string memory _userIcon) public {\n    UserInfo[msg.sender] = User(msg.sender, _userName, _userIcon);\n    emit UserInfoCreated(msg.sender, _userName, _userIcon);\n  } \n\n  // -------- Post a Item --------\n  function setItem(string memory _itemName, string memory _itemPhoto, uint256 _price) public {\n    allItems.push(Item(itemId, _itemName, _itemPhoto, _price, msg.sender, true, temporaryPurchaser));\n    myItemId[msg.sender].push(itemId);\n    //onSaleItems[allItems[itemId].selling].push(allItems[itemId].id);\n    emit PostItem(itemId, _itemName, _price, msg.sender, true, temporaryPurchaser);\n    itemId = itemId + 1;\n  }\n\n  // -------- Purchase a Item --------\n  function purchaseItem(uint256 _id) public {\n    Item memory _item = allItems[_id];\n    _item.selling = bool(false);\n    _item.purchaser = msg.sender;\n    allItems[_id] = _item;\n    myPurchasedItemId[msg.sender].push(_id);\n    emit ItemPurchased(_id, msg.sender);\n  }\n\n  // -------- Edit a Item --------\n  function editItem(uint256 _id, string memory _itemName, uint256 _price) public {\n    require(allItems[_id].seller == msg.sender);\n    Item memory _item = allItems[_id];\n    _item.itemName = _itemName;\n    _item.price = _price;\n    allItems[_id] = _item;\n    emit EditItem(_id, _itemName, _price);\n  }\n\n  // -------- Write Review to Seller --------\n  function writeReviewToSeller(uint256 _id, uint256 _star, string memory _text) public {\n    require(allItems[_id].selling == bool(false));\n    require(allItems[_id].purchaser == msg.sender);\n    reviewToSeller[_id] = SellerReview(_id, _star, _text);\n    emit WriteReviewToSeller(_id, _star, _text);\n  }\n\n  // -------- Write Review to Purchaser --------\n  function writeReviewToPurchaser(uint256 _id, uint256 _star, string memory _text) public {\n    require(allItems[_id].selling == bool(false));\n    require(allItems[_id].seller == msg.sender);\n    reviewToPurchaser[_id] = PurchaserReview(_id, _star, _text);\n    emit WriteReviewToPurchaser(_id, _star, _text);\n  }\n\n  // -------- My Items --------\n  function getMyItemId(address _address) public view returns (uint[] memory) {\n    return myItemId[_address];\n  }\n\n  function getMyItem(uint256 _id) public view returns (Item memory) {\n    return allItems[_id];\n  } \n\n  // -------- All Items --------\n  function getNumberOfItem() public view returns (uint256) {\n    return allItems.length;\n  }\n\n  function getAllItem(uint256 _id) public view returns (Item memory) {\n    return allItems[_id];\n  } \n\n  // -------- On Sale Items --------\n  function getOnSaleItemsId(bool _selling) public view returns (uint[] memory) {\n\n  }\n\n  function getItemOnSale(uint256 _id) public view returns (Item memory) {\n    if (allItems[_id].selling == bool(true)) {\n      return allItems[_id];\n    }\n  }\n\n  // -------- My Purchased Items --------\n  function getMyPurchasedItemId(address _address) public view returns (uint[] memory) {\n    return myPurchasedItemId[_address];\n  }\n\n  function getMyPurchasedItem(uint256 _id) public view returns (Item memory) {\n    require(allItems[_id].selling == bool(false) );\n    return allItems[_id];\n  } \n\n  // -------- UserInfo --------\n  function getUserInfo(address _userAddress) public view returns (User memory) {\n    return UserInfo[_userAddress];\n  }\n\n  // -------- Review --------\n  function getSellerReview(uint256 _id) public view returns (SellerReview memory) {\n    return reviewToSeller[_id];\n  } \n\n  function getPurchaserReview(uint256 _id) public view returns (PurchaserReview memory) {\n    return reviewToPurchaser[_id];\n  } \n}",
  "sourcePath": "/Users/yosuke.aramaki/Desktop/proto/nuxt-todo-app/contracts/Flibra.sol",
  "compiler": {
    "name": "solc",
    "version": "0.5.7+commit.6da8b019.Darwin.appleclang"
  },
  "schemaVersion": "3.0.6",
  "updatedAt": "2019-10-09T01:21:27.344Z",
  "devdoc": {
    "methods": {}
  },
  "userdoc": {
    "methods": {}
  }
}