{
  "contractName": "ItemDetail",
  "abi": [
    {
      "constant": true,
      "inputs": [
        {
          "name": "",
          "type": "uint256"
        }
      ],
      "name": "item",
      "outputs": [
        {
          "name": "itemName",
          "type": "string"
        },
        {
          "name": "itemPhoto",
          "type": "string"
        },
        {
          "name": "price",
          "type": "uint256"
        },
        {
          "name": "itemDetailText",
          "type": "string"
        },
        {
          "name": "category",
          "type": "string"
        },
        {
          "name": "subCategory",
          "type": "string"
        },
        {
          "name": "itemCondition",
          "type": "string"
        }
      ],
      "payable": false,
      "stateMutability": "view",
      "type": "function"
    },
    {
      "inputs": [
        {
          "name": "_itemName",
          "type": "string"
        },
        {
          "name": "_itemPhoto",
          "type": "string"
        },
        {
          "name": "_price",
          "type": "uint256"
        },
        {
          "name": "_itemDetailText",
          "type": "string"
        },
        {
          "name": "_category",
          "type": "string"
        },
        {
          "name": "_subCategory",
          "type": "string"
        },
        {
          "name": "_itemCondition",
          "type": "string"
        }
      ],
      "payable": false,
      "stateMutability": "nonpayable",
      "type": "constructor"
    },
    {
      "anonymous": false,
      "inputs": [
        {
          "indexed": false,
          "name": "_itemName",
          "type": "string"
        },
        {
          "indexed": false,
          "name": "_itemPhoto",
          "type": "string"
        },
        {
          "indexed": false,
          "name": "_price",
          "type": "uint256"
        },
        {
          "indexed": false,
          "name": "_itemDetailText",
          "type": "string"
        },
        {
          "indexed": false,
          "name": "_category",
          "type": "string"
        },
        {
          "indexed": false,
          "name": "_subCategory",
          "type": "string"
        },
        {
          "indexed": false,
          "name": "_itemCondition",
          "type": "string"
        }
      ],
      "name": "EditItem",
      "type": "event"
    },
    {
      "constant": true,
      "inputs": [],
      "name": "getItem",
      "outputs": [
        {
          "components": [
            {
              "name": "itemName",
              "type": "string"
            },
            {
              "name": "itemPhoto",
              "type": "string"
            },
            {
              "name": "price",
              "type": "uint256"
            },
            {
              "name": "itemDetailText",
              "type": "string"
            },
            {
              "name": "category",
              "type": "string"
            },
            {
              "name": "subCategory",
              "type": "string"
            },
            {
              "name": "itemCondition",
              "type": "string"
            }
          ],
          "name": "",
          "type": "tuple"
        }
      ],
      "payable": false,
      "stateMutability": "view",
      "type": "function"
    },
    {
      "constant": false,
      "inputs": [
        {
          "name": "_itemName",
          "type": "string"
        },
        {
          "name": "_itemPhoto",
          "type": "string"
        },
        {
          "name": "_price",
          "type": "uint256"
        },
        {
          "name": "_itemDetailText",
          "type": "string"
        },
        {
          "name": "_category",
          "type": "string"
        },
        {
          "name": "_subCategory",
          "type": "string"
        },
        {
          "name": "_itemCondition",
          "type": "string"
        }
      ],
      "name": "editItem",
      "outputs": [],
      "payable": false,
      "stateMutability": "nonpayable",
      "type": "function"
    }
  ],
  "bytecode": "0x60806040523480156200001157600080fd5b50604051620019e9380380620019e98339810180604052620000379190810190620002cd565b33600160006101000a81548173ffffffffffffffffffffffffffffffffffffffff021916908373ffffffffffffffffffffffffffffffffffffffff16021790555060006040518060e0016040528089815260200188815260200187815260200186815260200185815260200184815260200183815250908060018154018082558091505090600182039060005260206000209060070201600090919290919091506000820151816000019080519060200190620000f6929190620001ac565b50602082015181600101908051906020019062000115929190620001ac565b506040820151816002015560608201518160030190805190602001906200013e929190620001ac565b5060808201518160040190805190602001906200015d929190620001ac565b5060a08201518160050190805190602001906200017c929190620001ac565b5060c08201518160060190805190602001906200019b929190620001ac565b5050505050505050505050620004ab565b828054600181600116156101000203166002900490600052602060002090601f016020900481019282601f10620001ef57805160ff191683800117855562000220565b8280016001018555821562000220579182015b828111156200021f57825182559160200191906001019062000202565b5b5090506200022f919062000233565b5090565b6200025891905b80821115620002545760008160009055506001016200023a565b5090565b90565b600082601f8301126200026d57600080fd5b8151620002846200027e826200043e565b62000410565b91508082526020830160208301858383011115620002a157600080fd5b620002ae83828462000475565b50505092915050565b6000620002c582516200046b565b905092915050565b600080600080600080600060e0888a031215620002e957600080fd5b600088015167ffffffffffffffff8111156200030457600080fd5b620003128a828b016200025b565b975050602088015167ffffffffffffffff8111156200033057600080fd5b6200033e8a828b016200025b565b9650506040620003518a828b01620002b7565b955050606088015167ffffffffffffffff8111156200036f57600080fd5b6200037d8a828b016200025b565b945050608088015167ffffffffffffffff8111156200039b57600080fd5b620003a98a828b016200025b565b93505060a088015167ffffffffffffffff811115620003c757600080fd5b620003d58a828b016200025b565b92505060c088015167ffffffffffffffff811115620003f357600080fd5b620004018a828b016200025b565b91505092959891949750929550565b6000604051905081810181811067ffffffffffffffff821117156200043457600080fd5b8060405250919050565b600067ffffffffffffffff8211156200045657600080fd5b601f19601f8301169050602081019050919050565b6000819050919050565b60005b838110156200049557808201518184015260208101905062000478565b83811115620004a5576000848401525b50505050565b61152e80620004bb6000396000f3fe608060405234801561001057600080fd5b506004361061005e576000357c0100000000000000000000000000000000000000000000000000000000900480632d48fab314610063578063898e62191461007f578063c412eaba146100b5575b600080fd5b61007d60048036036100789190810190610fc9565b6100d3565b005b610099600480360361009491908101906110f7565b610697565b6040516100ac9796959493929190611341565b60405180910390f35b6100bd610a76565b6040516100ca91906113da565b60405180910390f35b3373ffffffffffffffffffffffffffffffffffffffff16600160009054906101000a900473ffffffffffffffffffffffffffffffffffffffff1673ffffffffffffffffffffffffffffffffffffffff161461012d57600080fd5b610135610e7f565b6000808154811061014257fe5b90600052602060002090600702016040518060e0016040529081600082018054600181600116156101000203166002900480601f0160208091040260200160405190810160405280929190818152602001828054600181600116156101000203166002900480156101f45780601f106101c9576101008083540402835291602001916101f4565b820191906000526020600020905b8154815290600101906020018083116101d757829003601f168201915b50505050508152602001600182018054600181600116156101000203166002900480601f0160208091040260200160405190810160405280929190818152602001828054600181600116156101000203166002900480156102965780601f1061026b57610100808354040283529160200191610296565b820191906000526020600020905b81548152906001019060200180831161027957829003601f168201915b5050505050815260200160028201548152602001600382018054600181600116156101000203166002900480601f0160208091040260200160405190810160405280929190818152602001828054600181600116156101000203166002900480156103425780601f1061031757610100808354040283529160200191610342565b820191906000526020600020905b81548152906001019060200180831161032557829003601f168201915b50505050508152602001600482018054600181600116156101000203166002900480601f0160208091040260200160405190810160405280929190818152602001828054600181600116156101000203166002900480156103e45780601f106103b9576101008083540402835291602001916103e4565b820191906000526020600020905b8154815290600101906020018083116103c757829003601f168201915b50505050508152602001600582018054600181600116156101000203166002900480601f0160208091040260200160405190810160405280929190818152602001828054600181600116156101000203166002900480156104865780601f1061045b57610100808354040283529160200191610486565b820191906000526020600020905b81548152906001019060200180831161046957829003601f168201915b50505050508152602001600682018054600181600116156101000203166002900480601f0160208091040260200160405190810160405280929190818152602001828054600181600116156101000203166002900480156105285780601f106104fd57610100808354040283529160200191610528565b820191906000526020600020905b81548152906001019060200180831161050b57829003601f168201915b505050505081525050905087816000018190525086816020018190525085816040018181525050848160600181905250838160800181905250828160a00181905250818160c00181905250806000808154811061058157fe5b906000526020600020906007020160008201518160000190805190602001906105ab929190610ebc565b5060208201518160010190805190602001906105c8929190610ebc565b506040820151816002015560608201518160030190805190602001906105ef929190610ebc565b50608082015181600401908051906020019061060c929190610ebc565b5060a0820151816005019080519060200190610629929190610ebc565b5060c0820151816006019080519060200190610646929190610ebc565b509050507f487d2c4897bda897a533628355b61f5ccc8d3dc9cfe7cf8a5b442bcb0e12047e8888888888888860405161068597969594939291906112a8565b60405180910390a15050505050505050565b600081815481106106a457fe5b9060005260206000209060070201600091509050806000018054600181600116156101000203166002900480601f0160208091040260200160405190810160405280929190818152602001828054600181600116156101000203166002900480156107505780601f1061072557610100808354040283529160200191610750565b820191906000526020600020905b81548152906001019060200180831161073357829003601f168201915b505050505090806001018054600181600116156101000203166002900480601f0160208091040260200160405190810160405280929190818152602001828054600181600116156101000203166002900480156107ee5780601f106107c3576101008083540402835291602001916107ee565b820191906000526020600020905b8154815290600101906020018083116107d157829003601f168201915b505050505090806002015490806003018054600181600116156101000203166002900480601f0160208091040260200160405190810160405280929190818152602001828054600181600116156101000203166002900480156108925780601f1061086757610100808354040283529160200191610892565b820191906000526020600020905b81548152906001019060200180831161087557829003601f168201915b505050505090806004018054600181600116156101000203166002900480601f0160208091040260200160405190810160405280929190818152602001828054600181600116156101000203166002900480156109305780601f1061090557610100808354040283529160200191610930565b820191906000526020600020905b81548152906001019060200180831161091357829003601f168201915b505050505090806005018054600181600116156101000203166002900480601f0160208091040260200160405190810160405280929190818152602001828054600181600116156101000203166002900480156109ce5780601f106109a3576101008083540402835291602001916109ce565b820191906000526020600020905b8154815290600101906020018083116109b157829003601f168201915b505050505090806006018054600181600116156101000203166002900480601f016020809104026020016040519081016040528092919081815260200182805460018160011615610100020316600290048015610a6c5780601f10610a4157610100808354040283529160200191610a6c565b820191906000526020600020905b815481529060010190602001808311610a4f57829003601f168201915b5050505050905087565b610a7e610e7f565b60008081548110610a8b57fe5b90600052602060002090600702016040518060e0016040529081600082018054600181600116156101000203166002900480601f016020809104026020016040519081016040528092919081815260200182805460018160011615610100020316600290048015610b3d5780601f10610b1257610100808354040283529160200191610b3d565b820191906000526020600020905b815481529060010190602001808311610b2057829003601f168201915b50505050508152602001600182018054600181600116156101000203166002900480601f016020809104026020016040519081016040528092919081815260200182805460018160011615610100020316600290048015610bdf5780601f10610bb457610100808354040283529160200191610bdf565b820191906000526020600020905b815481529060010190602001808311610bc257829003601f168201915b5050505050815260200160028201548152602001600382018054600181600116156101000203166002900480601f016020809104026020016040519081016040528092919081815260200182805460018160011615610100020316600290048015610c8b5780601f10610c6057610100808354040283529160200191610c8b565b820191906000526020600020905b815481529060010190602001808311610c6e57829003601f168201915b50505050508152602001600482018054600181600116156101000203166002900480601f016020809104026020016040519081016040528092919081815260200182805460018160011615610100020316600290048015610d2d5780601f10610d0257610100808354040283529160200191610d2d565b820191906000526020600020905b815481529060010190602001808311610d1057829003601f168201915b50505050508152602001600582018054600181600116156101000203166002900480601f016020809104026020016040519081016040528092919081815260200182805460018160011615610100020316600290048015610dcf5780601f10610da457610100808354040283529160200191610dcf565b820191906000526020600020905b815481529060010190602001808311610db257829003601f168201915b50505050508152602001600682018054600181600116156101000203166002900480601f016020809104026020016040519081016040528092919081815260200182805460018160011615610100020316600290048015610e715780601f10610e4657610100808354040283529160200191610e71565b820191906000526020600020905b815481529060010190602001808311610e5457829003601f168201915b505050505081525050905090565b6040518060e00160405280606081526020016060815260200160008152602001606081526020016060815260200160608152602001606081525090565b828054600181600116156101000203166002900490600052602060002090601f016020900481019282601f10610efd57805160ff1916838001178555610f2b565b82800160010185558215610f2b579182015b82811115610f2a578251825591602001919060010190610f0f565b5b509050610f389190610f3c565b5090565b610f5e91905b80821115610f5a576000816000905550600101610f42565b5090565b90565b600082601f830112610f7257600080fd5b8135610f85610f8082611429565b6113fc565b91508082526020830160208301858383011115610fa157600080fd5b610fac8382846114a1565b50505092915050565b6000610fc18235611497565b905092915050565b600080600080600080600060e0888a031215610fe457600080fd5b600088013567ffffffffffffffff811115610ffe57600080fd5b61100a8a828b01610f61565b975050602088013567ffffffffffffffff81111561102757600080fd5b6110338a828b01610f61565b96505060406110448a828b01610fb5565b955050606088013567ffffffffffffffff81111561106157600080fd5b61106d8a828b01610f61565b945050608088013567ffffffffffffffff81111561108a57600080fd5b6110968a828b01610f61565b93505060a088013567ffffffffffffffff8111156110b357600080fd5b6110bf8a828b01610f61565b92505060c088013567ffffffffffffffff8111156110dc57600080fd5b6110e88a828b01610f61565b91505092959891949750929550565b60006020828403121561110957600080fd5b600061111784828501610fb5565b91505092915050565b600061112b82611460565b611135818561147c565b93506111458185602086016114b0565b61114e816114e3565b840191505092915050565b600061116482611455565b61116e818561146b565b935061117e8185602086016114b0565b611187816114e3565b840191505092915050565b600061119d82611455565b6111a7818561147c565b93506111b78185602086016114b0565b6111c0816114e3565b840191505092915050565b600060e08301600083015184820360008601526111e88282611159565b915050602083015184820360208601526112028282611159565b9150506040830151611217604086018261128a565b506060830151848203606086015261122f8282611159565b915050608083015184820360808601526112498282611159565b91505060a083015184820360a08601526112638282611159565b91505060c083015184820360c086015261127d8282611159565b9150508091505092915050565b6112938161148d565b82525050565b6112a28161148d565b82525050565b600060e08201905081810360008301526112c2818a611120565b905081810360208301526112d68189611120565b90506112e56040830188611299565b81810360608301526112f78187611120565b9050818103608083015261130b8186611120565b905081810360a083015261131f8185611120565b905081810360c08301526113338184611120565b905098975050505050505050565b600060e082019050818103600083015261135b818a611192565b9050818103602083015261136f8189611192565b905061137e6040830188611299565b81810360608301526113908187611192565b905081810360808301526113a48186611192565b905081810360a08301526113b88185611192565b905081810360c08301526113cc8184611192565b905098975050505050505050565b600060208201905081810360008301526113f481846111cb565b905092915050565b6000604051905081810181811067ffffffffffffffff8211171561141f57600080fd5b8060405250919050565b600067ffffffffffffffff82111561144057600080fd5b601f19601f8301169050602081019050919050565b600081519050919050565b600081519050919050565b600082825260208201905092915050565b600082825260208201905092915050565b6000819050919050565b6000819050919050565b82818337600083830152505050565b60005b838110156114ce5780820151818401526020810190506114b3565b838111156114dd576000848401525b50505050565b6000601f19601f830116905091905056fea265627a7a72305820125d4b2c50896a178dddd598b4ff376f7c20ae99e52a97448846519199b236186c6578706572696d656e74616cf50037",
  "source": "pragma solidity ^0.5.0;\npragma experimental ABIEncoderV2;\n\ncontract ItemDetail {\n    \n    address constant temporaryPurchaser = address(0);\n    Item[] public item;\n    address internal itemOwner;\n    \n    struct Item {\n        string itemName;\n        string itemPhoto;\n        uint256 price;\n        string itemDetailText; \n        string category;\n        string subCategory;\n        string itemCondition;\n     } \n     \n    event EditItem(string _itemName, string _itemPhoto, uint256 _price, string _itemDetailText, string _category, string _subCategory, string _itemCondition);\n    \n    constructor(string memory _itemName, string memory _itemPhoto, uint256 _price, string memory _itemDetailText, string memory _category, string memory _subCategory, string memory _itemCondition) public {\n        itemOwner = msg.sender;\n        item.push(Item(_itemName, _itemPhoto, _price, _itemDetailText, _category, _subCategory, _itemCondition));\n    }\n    \n    function getItem() public view returns(Item memory) {\n        return item[0];\n    }\n    \n    function editItem(string memory _itemName, string memory _itemPhoto, uint256 _price, string memory _itemDetailText, string memory _category, string memory _subCategory, string memory _itemCondition) public {\n        require(itemOwner == msg.sender);\n        Item memory _item = item[0];\n        _item.itemName = _itemName;\n        _item.itemPhoto = _itemPhoto;\n        _item.price = _price;\n        _item.itemDetailText = _itemDetailText;\n        _item.category = _category;\n        _item.subCategory = _subCategory;\n        _item.itemCondition = _itemCondition;\n        item[0] = _item;\n        emit EditItem(_itemName, _itemPhoto, _price, _itemDetailText, _category, _subCategory,  _itemCondition);\n    }\n    \n}",
  "sourcePath": "/Users/yosuke.aramaki/Desktop/proto/nuxt-todo-app/contracts/ItemDetail.sol",
  "compiler": {
    "name": "solc",
    "version": "0.5.7+commit.6da8b019.Darwin.appleclang"
  },
  "schemaVersion": "3.0.2",
  "updatedAt": "2019-11-05T02:32:46.951Z",
  "devdoc": {
    "methods": {}
  },
  "userdoc": {
    "methods": {}
  }
}